{
  "contractName": "IDSERC20",
  "abi": [
    {
      "inputs": [],
      "stateMutability": "nonpayable",
      "type": "constructor"
    },
    {
      "anonymous": false,
      "inputs": [
        {
          "indexed": false,
          "internalType": "address",
          "name": "",
          "type": "address"
        },
        {
          "indexed": false,
          "internalType": "address",
          "name": "",
          "type": "address"
        },
        {
          "indexed": false,
          "internalType": "uint256",
          "name": "",
          "type": "uint256"
        }
      ],
      "name": "Transfer",
      "type": "event"
    },
    {
      "inputs": [],
      "name": "name",
      "outputs": [
        {
          "internalType": "string",
          "name": "",
          "type": "string"
        }
      ],
      "stateMutability": "view",
      "type": "function"
    },
    {
      "inputs": [],
      "name": "symbol",
      "outputs": [
        {
          "internalType": "string",
          "name": "",
          "type": "string"
        }
      ],
      "stateMutability": "view",
      "type": "function"
    },
    {
      "inputs": [],
      "name": "decimals",
      "outputs": [
        {
          "internalType": "uint8",
          "name": "",
          "type": "uint8"
        }
      ],
      "stateMutability": "view",
      "type": "function"
    },
    {
      "inputs": [],
      "name": "totalSupply",
      "outputs": [
        {
          "internalType": "uint256",
          "name": "",
          "type": "uint256"
        }
      ],
      "stateMutability": "view",
      "type": "function"
    },
    {
      "inputs": [
        {
          "internalType": "address",
          "name": "account",
          "type": "address"
        }
      ],
      "name": "balanceOf",
      "outputs": [
        {
          "internalType": "uint256",
          "name": "",
          "type": "uint256"
        }
      ],
      "stateMutability": "view",
      "type": "function"
    }
  ],
  "bytecode": "0x608060405234801561001057600080fd5b5033600460006101000a81548173ffffffffffffffffffffffffffffffffffffffff021916908373ffffffffffffffffffffffffffffffffffffffff1602179055506040518060400160405280600881526020017f494453546f6b656e0000000000000000000000000000000000000000000000008152506002908051906020019061009d9291906100ef565b506040518060400160405280600381526020017f4944530000000000000000000000000000000000000000000000000000000000815250600390805190602001906100e99291906100ef565b506101f3565b8280546100fb90610192565b90600052602060002090601f01602090048101928261011d5760008555610164565b82601f1061013657805160ff1916838001178555610164565b82800160010185558215610164579182015b82811115610163578251825591602001919060010190610148565b5b5090506101719190610175565b5090565b5b8082111561018e576000816000905550600101610176565b5090565b600060028204905060018216806101aa57607f821691505b602082108114156101be576101bd6101c4565b5b50919050565b7f4e487b7100000000000000000000000000000000000000000000000000000000600052602260045260246000fd5b6104e4806102026000396000f3fe608060405234801561001057600080fd5b5060043610610074576000357c01000000000000000000000000000000000000000000000000000000009004806306fdde031461007957806318160ddd14610097578063313ce567146100b557806370a08231146100d357806395d89b4114610103575b600080fd5b610081610121565b60405161008e9190610335565b60405180910390f35b61009f6101b3565b6040516100ac9190610357565b60405180910390f35b6100bd6101bd565b6040516100ca9190610372565b60405180910390f35b6100ed60048036038101906100e891906102b5565b6101c6565b6040516100fa9190610357565b60405180910390f35b61010b61020e565b6040516101189190610335565b60405180910390f35b60606002805461013090610425565b80601f016020809104026020016040519081016040528092919081815260200182805461015c90610425565b80156101a95780601f1061017e576101008083540402835291602001916101a9565b820191906000526020600020905b81548152906001019060200180831161018c57829003601f168201915b5050505050905090565b6000600154905090565b60006012905090565b60008060008373ffffffffffffffffffffffffffffffffffffffff1673ffffffffffffffffffffffffffffffffffffffff168152602001908152602001600020549050919050565b60606003805461021d90610425565b80601f016020809104026020016040519081016040528092919081815260200182805461024990610425565b80156102965780601f1061026b57610100808354040283529160200191610296565b820191906000526020600020905b81548152906001019060200180831161027957829003601f168201915b5050505050905090565b6000813590506102af81610497565b92915050565b6000602082840312156102c757600080fd5b60006102d5848285016102a0565b91505092915050565b60006102e98261038d565b6102f38185610398565b93506103038185602086016103f2565b61030c81610486565b840191505092915050565b610320816103db565b82525050565b61032f816103e5565b82525050565b6000602082019050818103600083015261034f81846102de565b905092915050565b600060208201905061036c6000830184610317565b92915050565b60006020820190506103876000830184610326565b92915050565b600081519050919050565b600082825260208201905092915050565b60006103b4826103bb565b9050919050565b600073ffffffffffffffffffffffffffffffffffffffff82169050919050565b6000819050919050565b600060ff82169050919050565b60005b838110156104105780820151818401526020810190506103f5565b8381111561041f576000848401525b50505050565b6000600282049050600182168061043d57607f821691505b6020821081141561045157610450610457565b5b50919050565b7f4e487b7100000000000000000000000000000000000000000000000000000000600052602260045260246000fd5b6000601f19601f8301169050919050565b6104a0816103a9565b81146104ab57600080fd5b5056fea26469706673582212202bd29a32c65016465be7b3266c0c3d0b568f4d225b552c487194ec3dcfb134d064736f6c63430008000033",
  "immutableReferences": {},
  "source": "pragma solidity ^0.8.0;\n\ncontract IDSERC20{\n\n    mapping(address => uint256) internal _balances;\n\n    uint256  _totalSupply;\n\n    string  _name;\n    string  _symbol;\n    address admin;\n\n    event Transfer(address, address, uint256);\n\n    constructor() {\n        admin= msg.sender;\n        _name = \"IDSToken\";\n        _symbol = \"IDS\";\n    }\n\n    function mintToken(address account, uint256 amount) internal virtual {\n        require(account != address(0), \"ERC20: mint to the zero address\");\n\n        _totalSupply += amount;\n        _balances[account] += amount;\n        emit Transfer(address(0), account, amount);\n\n    }\n    /**\n     * @dev Returns the name of the token.\n     */\n    function name() public view virtual  returns (string memory) {\n        return _name;\n    }\n\n    /**\n     * @dev Returns the symbol of the token, usually a shorter version of the\n     * name.\n     */\n    function symbol() public view virtual  returns (string memory) {\n        return _symbol;\n    }\n\n     function decimals() public view virtual  returns (uint8) {\n        return 18;\n    }\n\n    /**\n     * @dev See {IERC20-totalSupply}.\n     */\n    function totalSupply() public view virtual  returns (uint256) {\n        return _totalSupply;\n    }\n    \n    /**\n     * @dev See {IERC20-balanceOf}.\n     */\n    function balanceOf(address account) public view virtual  returns (uint256) {\n        return _balances[account];\n    }\n\n   /**\n     * @dev Moves `amount` of tokens from `sender` to `recipient`.\n     *\n     * This internal function is equivalent to {transfer}, and can be used to\n     * e.g. implement automatic token fees, slashing mechanisms, etc.\n     *\n     * Emits a {Transfer} event.\n     *\n     * Requirements:\n     *\n     * - `from` cannot be the zero address.\n     * - `to` cannot be the zero address.\n     * - `from` must have a balance of at least `amount`.\n     */\n    function transferToken(\n        address from,\n        address to,\n        uint256 amount\n    ) internal virtual {\n        require(from != address(0), \"ERC20: transfer from the zero address\");\n        require(to != address(0), \"ERC20: transfer to the zero address\");\n\n        uint256 fromBalance = _balances[from];\n        require(fromBalance >= amount, \"ERC20: transfer amount exceeds balance\");\n        unchecked {\n            _balances[from] = fromBalance - amount;\n        }\n        _balances[to] += amount;\n\n        emit Transfer(from, to, amount);\n\n    }\n\n\n    function burnToken(address account, uint256 amount) internal returns(bool){\n        require(account != address(0), \"ERC20: burn from the zero address\");\n\n        uint256 accountBalance = _balances[account];\n        require(accountBalance >= amount, \"ERC20: burn amount exceeds balance\");\n        unchecked {\n            _balances[account] = accountBalance - amount;\n        }\n        _totalSupply -= amount;\n\n        emit Transfer(account, address(0), amount);\n    return true;\n    }\n}",
  "sourcePath": "/Users/rogueguy/Documents/IDSToken/contracts/IDSERC20.sol",
  "compiler": {
    "name": "solc",
    "version": "0.8.0+commit.c7dfd78e.Emscripten.clang"
  },
  "schemaVersion": "3.4.1",
  "updatedAt": "2022-03-20T06:36:57.836Z",
  "devdoc": {
    "kind": "dev",
    "methods": {
      "balanceOf(address)": {
        "details": "See {IERC20-balanceOf}."
      },
      "name()": {
        "details": "Returns the name of the token."
      },
      "symbol()": {
        "details": "Returns the symbol of the token, usually a shorter version of the name."
      },
      "totalSupply()": {
        "details": "See {IERC20-totalSupply}."
      }
    },
    "version": 1
  },
  "userdoc": {
    "kind": "user",
    "methods": {},
    "version": 1
  }
}