{
  "contractName": "IDSNFTMP",
  "abi": [
    {
      "inputs": [],
      "stateMutability": "nonpayable",
      "type": "constructor"
    },
    {
      "anonymous": false,
      "inputs": [
        {
          "indexed": false,
          "internalType": "address",
          "name": "",
          "type": "address"
        },
        {
          "indexed": false,
          "internalType": "address",
          "name": "",
          "type": "address"
        },
        {
          "indexed": false,
          "internalType": "uint256",
          "name": "",
          "type": "uint256"
        }
      ],
      "name": "Transfer",
      "type": "event"
    },
    {
      "anonymous": false,
      "inputs": [
        {
          "indexed": false,
          "internalType": "address",
          "name": "",
          "type": "address"
        },
        {
          "indexed": false,
          "internalType": "address",
          "name": "",
          "type": "address"
        },
        {
          "indexed": false,
          "internalType": "uint256",
          "name": "",
          "type": "uint256"
        }
      ],
      "name": "TransferNFT",
      "type": "event"
    },
    {
      "inputs": [
        {
          "internalType": "address",
          "name": "account",
          "type": "address"
        }
      ],
      "name": "balanceOf",
      "outputs": [
        {
          "internalType": "uint256",
          "name": "",
          "type": "uint256"
        }
      ],
      "stateMutability": "view",
      "type": "function",
      "constant": true
    },
    {
      "inputs": [
        {
          "internalType": "address",
          "name": "owner",
          "type": "address"
        }
      ],
      "name": "balanceOfNFTOwner",
      "outputs": [
        {
          "internalType": "uint256",
          "name": "",
          "type": "uint256"
        }
      ],
      "stateMutability": "view",
      "type": "function",
      "constant": true
    },
    {
      "inputs": [],
      "name": "decimals",
      "outputs": [
        {
          "internalType": "uint8",
          "name": "",
          "type": "uint8"
        }
      ],
      "stateMutability": "view",
      "type": "function",
      "constant": true
    },
    {
      "inputs": [],
      "name": "name",
      "outputs": [
        {
          "internalType": "string",
          "name": "",
          "type": "string"
        }
      ],
      "stateMutability": "view",
      "type": "function",
      "constant": true
    },
    {
      "inputs": [],
      "name": "nameOfNFT",
      "outputs": [
        {
          "internalType": "string",
          "name": "",
          "type": "string"
        }
      ],
      "stateMutability": "view",
      "type": "function",
      "constant": true
    },
    {
      "inputs": [
        {
          "internalType": "uint256",
          "name": "tokenId",
          "type": "uint256"
        }
      ],
      "name": "ownerOfNFT",
      "outputs": [
        {
          "internalType": "address",
          "name": "",
          "type": "address"
        }
      ],
      "stateMutability": "view",
      "type": "function",
      "constant": true
    },
    {
      "inputs": [],
      "name": "symbol",
      "outputs": [
        {
          "internalType": "string",
          "name": "",
          "type": "string"
        }
      ],
      "stateMutability": "view",
      "type": "function",
      "constant": true
    },
    {
      "inputs": [],
      "name": "symbolOfNFT",
      "outputs": [
        {
          "internalType": "string",
          "name": "",
          "type": "string"
        }
      ],
      "stateMutability": "view",
      "type": "function",
      "constant": true
    },
    {
      "inputs": [
        {
          "internalType": "uint256",
          "name": "tokenId",
          "type": "uint256"
        }
      ],
      "name": "tokenURI",
      "outputs": [
        {
          "internalType": "string",
          "name": "",
          "type": "string"
        }
      ],
      "stateMutability": "view",
      "type": "function",
      "constant": true
    },
    {
      "inputs": [],
      "name": "totalSupply",
      "outputs": [
        {
          "internalType": "uint256",
          "name": "",
          "type": "uint256"
        }
      ],
      "stateMutability": "view",
      "type": "function",
      "constant": true
    },
    {
      "inputs": [
        {
          "internalType": "address",
          "name": "to",
          "type": "address"
        },
        {
          "internalType": "uint256",
          "name": "amount",
          "type": "uint256"
        }
      ],
      "name": "mintTokens",
      "outputs": [
        {
          "internalType": "bool",
          "name": "",
          "type": "bool"
        }
      ],
      "stateMutability": "nonpayable",
      "type": "function"
    },
    {
      "inputs": [
        {
          "internalType": "address",
          "name": "to",
          "type": "address"
        }
      ],
      "name": "mintNFTs",
      "outputs": [
        {
          "internalType": "bool",
          "name": "",
          "type": "bool"
        }
      ],
      "stateMutability": "nonpayable",
      "type": "function"
    },
    {
      "inputs": [
        {
          "internalType": "uint256",
          "name": "tokenId",
          "type": "uint256"
        },
        {
          "internalType": "uint256",
          "name": "value",
          "type": "uint256"
        }
      ],
      "name": "auctionNFT",
      "outputs": [
        {
          "internalType": "bool",
          "name": "",
          "type": "bool"
        }
      ],
      "stateMutability": "nonpayable",
      "type": "function"
    },
    {
      "inputs": [
        {
          "internalType": "address",
          "name": "to",
          "type": "address"
        },
        {
          "internalType": "uint256",
          "name": "tokenId",
          "type": "uint256"
        }
      ],
      "name": "buyNFT",
      "outputs": [
        {
          "internalType": "bool",
          "name": "",
          "type": "bool"
        }
      ],
      "stateMutability": "nonpayable",
      "type": "function"
    },
    {
      "inputs": [
        {
          "internalType": "uint256",
          "name": "tokenId",
          "type": "uint256"
        }
      ],
      "name": "sellNFT",
      "outputs": [
        {
          "internalType": "bool",
          "name": "",
          "type": "bool"
        }
      ],
      "stateMutability": "nonpayable",
      "type": "function"
    },
    {
      "inputs": [
        {
          "internalType": "uint256",
          "name": "tokenId",
          "type": "uint256"
        },
        {
          "internalType": "uint256",
          "name": "lockPreiodInDays",
          "type": "uint256"
        }
      ],
      "name": "stakeNFT",
      "outputs": [
        {
          "internalType": "bool",
          "name": "",
          "type": "bool"
        }
      ],
      "stateMutability": "nonpayable",
      "type": "function"
    },
    {
      "inputs": [
        {
          "internalType": "uint256",
          "name": "tokenId",
          "type": "uint256"
        }
      ],
      "name": "release",
      "outputs": [
        {
          "internalType": "bool",
          "name": "",
          "type": "bool"
        }
      ],
      "stateMutability": "nonpayable",
      "type": "function"
    },
    {
      "inputs": [
        {
          "internalType": "uint256",
          "name": "tokenId",
          "type": "uint256"
        }
      ],
      "name": "getNFTOwner",
      "outputs": [
        {
          "internalType": "address",
          "name": "",
          "type": "address"
        }
      ],
      "stateMutability": "view",
      "type": "function",
      "constant": true
    },
    {
      "inputs": [
        {
          "internalType": "uint256",
          "name": "tokenId",
          "type": "uint256"
        }
      ],
      "name": "releaseTime",
      "outputs": [
        {
          "internalType": "uint256",
          "name": "",
          "type": "uint256"
        }
      ],
      "stateMutability": "view",
      "type": "function",
      "constant": true
    }
  ],
  "bytecode": "0x60806040523480156200001157600080fd5b5033600460006101000a81548173ffffffffffffffffffffffffffffffffffffffff021916908373ffffffffffffffffffffffffffffffffffffffff1602179055506040518060400160405280600881526020017f494453546f6b656e00000000000000000000000000000000000000000000000081525060029080519060200190620000a0929190620001d2565b506040518060400160405280600381526020017f494453000000000000000000000000000000000000000000000000000000000081525060039080519060200190620000ee929190620001d2565b506040518060400160405280600b81526020017f4944534e4654544f4b454e000000000000000000000000000000000000000000815250600590805190602001906200013c929190620001d2565b506040518060400160405280600681526020017f4944534e46540000000000000000000000000000000000000000000000000000815250600690805190602001906200018a929190620001d2565b5033600460006101000a81548173ffffffffffffffffffffffffffffffffffffffff021916908373ffffffffffffffffffffffffffffffffffffffff160217905550620002e7565b828054620001e09062000282565b90600052602060002090601f01602090048101928262000204576000855562000250565b82601f106200021f57805160ff191683800117855562000250565b8280016001018555821562000250579182015b828111156200024f57825182559160200191906001019062000232565b5b5090506200025f919062000263565b5090565b5b808211156200027e57600081600090555060010162000264565b5090565b600060028204905060018216806200029b57607f821691505b60208210811415620002b257620002b1620002b8565b5b50919050565b7f4e487b7100000000000000000000000000000000000000000000000000000000600052602260045260246000fd5b61265980620002f76000396000f3fe608060405234801561001057600080fd5b506004361061013e576000357c01000000000000000000000000000000000000000000000000000000009004806395d89b41116100ca578063c87b56dd1161008e578063c87b56dd14610389578063deaea2e3146103b9578063ee9cdfb3146103e9578063f0dda65c14610419578063f1b06f39146104495761013e565b806395d89b41146102bd578063a197eab9146102db578063a82ba76f1461030b578063bd5e4ebc1461033b578063bd934d1b146103595761013e565b80632d8a746e116101115780632d8a746e146101df578063313ce5671461020f57806337bdc99b1461022d57806351cecc801461025d57806370a082311461028d5761013e565b806306fdde031461014357806309c4bb2b14610161578063102389ed1461019157806318160ddd146101c1575b600080fd5b61014b610467565b604051610158919061213f565b60405180910390f35b61017b6004803603810190610176919061195a565b6104f9565b6040516101889190612381565b60405180910390f35b6101ab60048036038101906101a69190611983565b610516565b6040516101b89190612124565b60405180910390f35b6101c9610624565b6040516101d69190612381565b60405180910390f35b6101f960048036038101906101f4919061195a565b61062e565b60405161020691906120d2565b60405180910390f35b6102176106e0565b604051610224919061239c565b60405180910390f35b6102476004803603810190610242919061195a565b6106e9565b6040516102549190612124565b60405180910390f35b61027760048036038101906102729190611983565b6107b3565b6040516102849190612124565b60405180910390f35b6102a760048036038101906102a291906118f5565b6108fc565b6040516102b49190612381565b60405180910390f35b6102c5610944565b6040516102d2919061213f565b60405180910390f35b6102f560048036038101906102f091906118f5565b6109d6565b6040516103029190612124565b60405180910390f35b6103256004803603810190610320919061191e565b610a63565b6040516103329190612124565b60405180910390f35b610343610c96565b604051610350919061213f565b60405180910390f35b610373600480360381019061036e91906118f5565b610d28565b6040516103809190612381565b60405180910390f35b6103a3600480360381019061039e919061195a565b610de0565b6040516103b0919061213f565b60405180910390f35b6103d360048036038101906103ce919061195a565b610e87565b6040516103e091906120d2565b60405180910390f35b61040360048036038101906103fe919061195a565b610f0c565b6040516104109190612124565b60405180910390f35b610433600480360381019061042e919061191e565b611090565b6040516104409190612124565b60405180910390f35b6104516110a6565b60405161045e919061213f565b60405180910390f35b6060600280546104769061254a565b80601f01602080910402602001604051908101604052809291908181526020018280546104a29061254a565b80156104ef5780601f106104c4576101008083540402835291602001916104ef565b820191906000526020600020905b8154815290600101906020018083116104d257829003601f168201915b5050505050905090565b6000600d6000838152602001908152602001600020549050919050565b600061052183611138565b610560576040517f08c379a000000000000000000000000000000000000000000000000000000000815260040161055790612321565b60405180910390fd5b3373ffffffffffffffffffffffffffffffffffffffff1661058084610e87565b73ffffffffffffffffffffffffffffffffffffffff16146105d6576040517f08c379a00000000000000000000000000000000000000000000000000000000081526004016105cd90612181565b60405180910390fd5b6001600a600085815260200190815260200160002060006101000a81548160ff02191690831515021790555081600b6000858152602001908152602001600020819055506001905092915050565b6000600154905090565b6000806007600084815260200190815260200160002060009054906101000a900473ffffffffffffffffffffffffffffffffffffffff169050600073ffffffffffffffffffffffffffffffffffffffff168173ffffffffffffffffffffffffffffffffffffffff1614156106d7576040517f08c379a00000000000000000000000000000000000000000000000000000000081526004016106ce906122a1565b60405180910390fd5b80915050919050565b60006012905090565b60006106f482611138565b610733576040517f08c379a000000000000000000000000000000000000000000000000000000000815260040161072a90612321565b60405180910390fd5b61073c826104f9565b42101561077e576040517f08c379a000000000000000000000000000000000000000000000000000000000815260040161077590612161565b60405180910390fd5b6000600c600084815260200190815260200160002060006101000a81548160ff02191690831515021790555060019050919050565b60006107be83611138565b6107fd576040517f08c379a00000000000000000000000000000000000000000000000000000000081526004016107f490612321565b60405180910390fd5b3373ffffffffffffffffffffffffffffffffffffffff1661081d84610e87565b73ffffffffffffffffffffffffffffffffffffffff1614610873576040517f08c379a000000000000000000000000000000000000000000000000000000000815260040161086a906121c1565b60405180910390fd5b6103e8603c806018856108869190612434565b6108909190612434565b61089a9190612434565b6108a49190612434565b426108af91906123de565b600d6000858152602001908152602001600020819055506001600c600085815260200190815260200160002060006101000a81548160ff0219169083151502179055506001905092915050565b60008060008373ffffffffffffffffffffffffffffffffffffffff1673ffffffffffffffffffffffffffffffffffffffff168152602001908152602001600020549050919050565b6060600380546109539061254a565b80601f016020809104026020016040519081016040528092919081815260200182805461097f9061254a565b80156109cc5780601f106109a1576101008083540402835291602001916109cc565b820191906000526020600020905b8154815290600101906020018083116109af57829003601f168201915b5050505050905090565b60006001600960008282546109eb91906123de565b925050819055506109fe826009546111a4565b6000600a6000600954815260200190815260200160002060006101000a81548160ff0219169083151502179055506000600c6000600954815260200190815260200160002060006101000a81548160ff02191690831515021790555060019050919050565b6000610a6e82611138565b610aad576040517f08c379a0000000000000000000000000000000000000000000000000000000008152600401610aa490612321565b60405180910390fd5b60016000808573ffffffffffffffffffffffffffffffffffffffff1673ffffffffffffffffffffffffffffffffffffffff168152602001908152602001600020541015610b2f576040517f08c379a0000000000000000000000000000000000000000000000000000000008152600401610b26906121e1565b60405180910390fd5b60011515600a600084815260200190815260200160002060009054906101000a900460ff16151514610b96576040517f08c379a0000000000000000000000000000000000000000000000000000000008152600401610b8d90612301565b60405180910390fd5b60001515600c600084815260200190815260200160002060009054906101000a900460ff16151514610bfd576040517f08c379a0000000000000000000000000000000000000000000000000000000008152600401610bf4906122c1565b60405180910390fd5b610c4e836007600085815260200190815260200160002060009054906101000a900473ffffffffffffffffffffffffffffffffffffffff16600b600086815260200190815260200160002054611346565b610c8c6007600084815260200190815260200160002060009054906101000a900473ffffffffffffffffffffffffffffffffffffffff168484611587565b6001905092915050565b606060058054610ca59061254a565b80601f0160208091040260200160405190810160405280929190818152602001828054610cd19061254a565b8015610d1e5780601f10610cf357610100808354040283529160200191610d1e565b820191906000526020600020905b815481529060010190602001808311610d0157829003601f168201915b5050505050905090565b60008073ffffffffffffffffffffffffffffffffffffffff168273ffffffffffffffffffffffffffffffffffffffff161415610d99576040517f08c379a0000000000000000000000000000000000000000000000000000000008152600401610d9090612281565b60405180910390fd5b600860008373ffffffffffffffffffffffffffffffffffffffff1673ffffffffffffffffffffffffffffffffffffffff168152602001908152602001600020549050919050565b6060610deb82611138565b610e2a576040517f08c379a0000000000000000000000000000000000000000000000000000000008152600401610e2190612321565b60405180910390fd5b60006040518060200160405280600081525090506000815111610e5c5760405180602001604052806000815250610e7f565b8083604051602001610e6f9291906120aa565b6040516020818303038152906040525b915050919050565b6000610e9282611138565b610ed1576040517f08c379a0000000000000000000000000000000000000000000000000000000008152600401610ec890612321565b60405180910390fd5b6007600083815260200190815260200160002060009054906101000a900473ffffffffffffffffffffffffffffffffffffffff169050919050565b6000610f1782611138565b610f56576040517f08c379a0000000000000000000000000000000000000000000000000000000008152600401610f4d90612321565b60405180910390fd5b60001515600c600084815260200190815260200160002060009054906101000a900460ff16151514610fbd576040517f08c379a0000000000000000000000000000000000000000000000000000000008152600401610fb4906122c1565b60405180910390fd5b60016000803373ffffffffffffffffffffffffffffffffffffffff1673ffffffffffffffffffffffffffffffffffffffff168152602001908152602001600020600082825461100c91906123de565b92505081905550600460009054906101000a900473ffffffffffffffffffffffffffffffffffffffff166007600084815260200190815260200160002060006101000a81548173ffffffffffffffffffffffffffffffffffffffff021916908373ffffffffffffffffffffffffffffffffffffffff16021790555060019050919050565b600061109c83836117ad565b6001905092915050565b6060600680546110b59061254a565b80601f01602080910402602001604051908101604052809291908181526020018280546110e19061254a565b801561112e5780601f106111035761010080835404028352916020019161112e565b820191906000526020600020905b81548152906001019060200180831161111157829003601f168201915b5050505050905090565b60008073ffffffffffffffffffffffffffffffffffffffff166007600084815260200190815260200160002060009054906101000a900473ffffffffffffffffffffffffffffffffffffffff1673ffffffffffffffffffffffffffffffffffffffff1614159050919050565b600073ffffffffffffffffffffffffffffffffffffffff168273ffffffffffffffffffffffffffffffffffffffff161415611214576040517f08c379a000000000000000000000000000000000000000000000000000000000815260040161120b906122e1565b60405180910390fd5b61121d81611138565b1561125d576040517f08c379a000000000000000000000000000000000000000000000000000000000815260040161125490612221565b60405180910390fd5b6001600860008473ffffffffffffffffffffffffffffffffffffffff1673ffffffffffffffffffffffffffffffffffffffff16815260200190815260200160002060008282546112ad91906123de565b92505081905550816007600083815260200190815260200160002060006101000a81548173ffffffffffffffffffffffffffffffffffffffff021916908373ffffffffffffffffffffffffffffffffffffffff1602179055507fa64cdec004d2859ac7547f4ed3252f53d0fa0b8dcbcc93a47894eee072714b626000838360405161133a939291906120ed565b60405180910390a15050565b600073ffffffffffffffffffffffffffffffffffffffff168373ffffffffffffffffffffffffffffffffffffffff1614156113b6576040517f08c379a00000000000000000000000000000000000000000000000000000000081526004016113ad90612341565b60405180910390fd5b600073ffffffffffffffffffffffffffffffffffffffff168273ffffffffffffffffffffffffffffffffffffffff161415611426576040517f08c379a000000000000000000000000000000000000000000000000000000000815260040161141d906121a1565b60405180910390fd5b60008060008573ffffffffffffffffffffffffffffffffffffffff1673ffffffffffffffffffffffffffffffffffffffff168152602001908152602001600020549050818110156114ac576040517f08c379a00000000000000000000000000000000000000000000000000000000081526004016114a390612241565b60405180910390fd5b8181036000808673ffffffffffffffffffffffffffffffffffffffff1673ffffffffffffffffffffffffffffffffffffffff16815260200190815260200160002081905550816000808573ffffffffffffffffffffffffffffffffffffffff1673ffffffffffffffffffffffffffffffffffffffff168152602001908152602001600020600082825461153f91906123de565b925050819055507fddf252ad1be2c89b69c2b068fc378daa952ba7f163c4a11628f55a4df523b3ef848484604051611579939291906120ed565b60405180910390a150505050565b8273ffffffffffffffffffffffffffffffffffffffff166115a78261062e565b73ffffffffffffffffffffffffffffffffffffffff16146115fd576040517f08c379a00000000000000000000000000000000000000000000000000000000081526004016115f490612201565b60405180910390fd5b600073ffffffffffffffffffffffffffffffffffffffff168273ffffffffffffffffffffffffffffffffffffffff16141561166d576040517f08c379a000000000000000000000000000000000000000000000000000000000815260040161166490612261565b60405180910390fd5b6001600860008573ffffffffffffffffffffffffffffffffffffffff1673ffffffffffffffffffffffffffffffffffffffff16815260200190815260200160002060008282546116bd919061248e565b925050819055506001600860008473ffffffffffffffffffffffffffffffffffffffff1673ffffffffffffffffffffffffffffffffffffffff168152602001908152602001600020600082825461171491906123de565b92505081905550816007600083815260200190815260200160002060006101000a81548173ffffffffffffffffffffffffffffffffffffffff021916908373ffffffffffffffffffffffffffffffffffffffff1602179055507fa64cdec004d2859ac7547f4ed3252f53d0fa0b8dcbcc93a47894eee072714b628383836040516117a0939291906120ed565b60405180910390a1505050565b600073ffffffffffffffffffffffffffffffffffffffff168273ffffffffffffffffffffffffffffffffffffffff16141561181d576040517f08c379a000000000000000000000000000000000000000000000000000000000815260040161181490612361565b60405180910390fd5b806001600082825461182f91906123de565b92505081905550806000808473ffffffffffffffffffffffffffffffffffffffff1673ffffffffffffffffffffffffffffffffffffffff168152602001908152602001600020600082825461188491906123de565b925050819055507fddf252ad1be2c89b69c2b068fc378daa952ba7f163c4a11628f55a4df523b3ef600083836040516118bf939291906120ed565b60405180910390a15050565b6000813590506118da816125f5565b92915050565b6000813590506118ef8161260c565b92915050565b60006020828403121561190757600080fd5b6000611915848285016118cb565b91505092915050565b6000806040838503121561193157600080fd5b600061193f858286016118cb565b9250506020611950858286016118e0565b9150509250929050565b60006020828403121561196c57600080fd5b600061197a848285016118e0565b91505092915050565b6000806040838503121561199657600080fd5b60006119a4858286016118e0565b92505060206119b5858286016118e0565b9150509250929050565b6119c8816124c2565b82525050565b6119d7816124d4565b82525050565b60006119e8826123b7565b6119f281856123c2565b9350611a02818560208601612517565b611a0b816125e4565b840191505092915050565b6000611a21826123b7565b611a2b81856123d3565b9350611a3b818560208601612517565b80840191505092915050565b6000611a546032836123c2565b91507f546f6b656e54696d656c6f636b3a2063757272656e742074696d65206973206260008301527f65666f72652072656c656173652074696d6500000000000000000000000000006020830152604082019050919050565b6000611aba6022836123c2565b91507f4f6e6c79206f776e65722063616e20736574204e465420666f7220617563746960008301527f6f6e0000000000000000000000000000000000000000000000000000000000006020830152604082019050919050565b6000611b206023836123c2565b91507f45524332303a207472616e7366657220746f20746865207a65726f206164647260008301527f65737300000000000000000000000000000000000000000000000000000000006020830152604082019050919050565b6000611b86600a836123c2565b91507f4f6e6c79206f776e6572000000000000000000000000000000000000000000006000830152602082019050919050565b6000611bc66023836123c2565b91507f45524332304d657461646174613a20496e73756666696369656e742042616c6160008301527f6e636500000000000000000000000000000000000000000000000000000000006020830152604082019050919050565b6000611c2c6025836123c2565b91507f4552433732313a207472616e736665722066726f6d20696e636f72726563742060008301527f6f776e65720000000000000000000000000000000000000000000000000000006020830152604082019050919050565b6000611c92601c836123c2565b91507f4552433732313a20746f6b656e20616c7265616479206d696e746564000000006000830152602082019050919050565b6000611cd26026836123c2565b91507f45524332303a207472616e7366657220616d6f756e742065786365656473206260008301527f616c616e636500000000000000000000000000000000000000000000000000006020830152604082019050919050565b6000611d386024836123c2565b91507f4552433732313a207472616e7366657220746f20746865207a65726f2061646460008301527f72657373000000000000000000000000000000000000000000000000000000006020830152604082019050919050565b6000611d9e602a836123c2565b91507f4552433732313a2062616c616e636520717565727920666f7220746865207a6560008301527f726f2061646472657373000000000000000000000000000000000000000000006020830152604082019050919050565b6000611e046029836123c2565b91507f4552433732313a206f776e657220717565727920666f72206e6f6e657869737460008301527f656e7420746f6b656e00000000000000000000000000000000000000000000006020830152604082019050919050565b6000611e6a602b836123c2565b91507f546f6b656e207374616b65642c206e6f7420617661696c61626c6520746f206260008301527f65207075726368617365640000000000000000000000000000000000000000006020830152604082019050919050565b6000611ed06020836123c2565b91507f4552433732313a206d696e7420746f20746865207a65726f20616464726573736000830152602082019050919050565b6000611f106023836123c2565b91507f546f6b656e206e6f7420617661696c61626c6520746f2062652070757263686160008301527f73656400000000000000000000000000000000000000000000000000000000006020830152604082019050919050565b6000611f76602f836123c2565b91507f4552433732314d657461646174613a2055524920717565727920666f72206e6f60008301527f6e6578697374656e7420746f6b656e00000000000000000000000000000000006020830152604082019050919050565b6000611fdc6025836123c2565b91507f45524332303a207472616e736665722066726f6d20746865207a65726f20616460008301527f64726573730000000000000000000000000000000000000000000000000000006020830152604082019050919050565b6000612042601f836123c2565b91507f45524332303a206d696e7420746f20746865207a65726f2061646472657373006000830152602082019050919050565b61207e81612500565b82525050565b61209561209082612500565b61257c565b82525050565b6120a48161250a565b82525050565b60006120b68285611a16565b91506120c28284612084565b6020820191508190509392505050565b60006020820190506120e760008301846119bf565b92915050565b600060608201905061210260008301866119bf565b61210f60208301856119bf565b61211c6040830184612075565b949350505050565b600060208201905061213960008301846119ce565b92915050565b6000602082019050818103600083015261215981846119dd565b905092915050565b6000602082019050818103600083015261217a81611a47565b9050919050565b6000602082019050818103600083015261219a81611aad565b9050919050565b600060208201905081810360008301526121ba81611b13565b9050919050565b600060208201905081810360008301526121da81611b79565b9050919050565b600060208201905081810360008301526121fa81611bb9565b9050919050565b6000602082019050818103600083015261221a81611c1f565b9050919050565b6000602082019050818103600083015261223a81611c85565b9050919050565b6000602082019050818103600083015261225a81611cc5565b9050919050565b6000602082019050818103600083015261227a81611d2b565b9050919050565b6000602082019050818103600083015261229a81611d91565b9050919050565b600060208201905081810360008301526122ba81611df7565b9050919050565b600060208201905081810360008301526122da81611e5d565b9050919050565b600060208201905081810360008301526122fa81611ec3565b9050919050565b6000602082019050818103600083015261231a81611f03565b9050919050565b6000602082019050818103600083015261233a81611f69565b9050919050565b6000602082019050818103600083015261235a81611fcf565b9050919050565b6000602082019050818103600083015261237a81612035565b9050919050565b60006020820190506123966000830184612075565b92915050565b60006020820190506123b1600083018461209b565b92915050565b600081519050919050565b600082825260208201905092915050565b600081905092915050565b60006123e982612500565b91506123f483612500565b9250827fffffffffffffffffffffffffffffffffffffffffffffffffffffffffffffffff0382111561242957612428612586565b5b828201905092915050565b600061243f82612500565b915061244a83612500565b9250817fffffffffffffffffffffffffffffffffffffffffffffffffffffffffffffffff048311821515161561248357612482612586565b5b828202905092915050565b600061249982612500565b91506124a483612500565b9250828210156124b7576124b6612586565b5b828203905092915050565b60006124cd826124e0565b9050919050565b60008115159050919050565b600073ffffffffffffffffffffffffffffffffffffffff82169050919050565b6000819050919050565b600060ff82169050919050565b60005b8381101561253557808201518184015260208101905061251a565b83811115612544576000848401525b50505050565b6000600282049050600182168061256257607f821691505b60208210811415612576576125756125b5565b5b50919050565b6000819050919050565b7f4e487b7100000000000000000000000000000000000000000000000000000000600052601160045260246000fd5b7f4e487b7100000000000000000000000000000000000000000000000000000000600052602260045260246000fd5b6000601f19601f8301169050919050565b6125fe816124c2565b811461260957600080fd5b50565b61261581612500565b811461262057600080fd5b5056fea2646970667358221220ab3a3128ae4828a6cec79ff567ab82e6146e5cb9cbc901282dbcd5261b3e02e364736f6c63430008000033",
  "immutableReferences": {},
  "source": "pragma solidity ^0.8.0;\n\nimport './IDSERC20.sol';\nimport './IDSERC721.sol';\n\ncontract IDSNFTMP is IDSERC20, IDSERC721{\n\n    uint256 private _tokenIds;\n\n    mapping(uint256=>bool) internal _auctionStatus;\n\n    mapping(uint256=>uint256) internal _auctionValue;\n\n    mapping(uint256=>bool) internal _staked;\n\n    mapping(uint256=>uint256) internal _releaseTime;\n\n    constructor(){\n        admin= msg.sender;\n    }\n\n    function mintTokens(address to, uint256 amount) public returns(bool){\n        mintToken(to, amount);\n        return true;\n    }\n\n    function mintNFTs(address to) public returns(bool){\n        _tokenIds +=1;\n        mintNFT(to, _tokenIds);\n        _auctionStatus[_tokenIds]= false;\n        _staked[_tokenIds]= false;\n        return true;\n    }\n\n    function auctionNFT(uint256 tokenId, uint256 value) public returns(bool){\n        require(_exists(tokenId), \"ERC721Metadata: URI query for nonexistent token\");\n        require(getNFTOwner(tokenId)==msg.sender, 'Only owner can set NFT for auction');\n        _auctionStatus[tokenId]= true;\n        _auctionValue[tokenId]= value;\n        return true;\n    }\n\n    function buyNFT(address to, uint256 tokenId) public returns(bool){\n        require(_exists(tokenId), \"ERC721Metadata: URI query for nonexistent token\");\n        require(_balances[to]>=1, \"ERC20Metadata: Insufficient Balance\");\n        require(_auctionStatus[tokenId]== true, \"Token not available to be purchased\");\n        require(_staked[tokenId]== false, \"Token staked, not available to be purchased\");\n        transferToken(to,_owners[tokenId], _auctionValue[tokenId]);\n        transferNFT(_owners[tokenId], to, tokenId);\n        return true;\n    }\n\n    function sellNFT(uint256 tokenId) public returns(bool){\n        require(_exists(tokenId), \"ERC721Metadata: URI query for nonexistent token\");\n        require(_staked[tokenId]== false, \"Token staked, not available to be purchased\");\n        _balances[msg.sender] +=1;\n        _owners[tokenId]= admin;\n        return true;\n    }\n\n    function stakeNFT(uint256 tokenId, uint256 lockPreiodInDays) public returns(bool){\n        require(_exists(tokenId), \"ERC721Metadata: URI query for nonexistent token\");\n        require(getNFTOwner(tokenId)== msg.sender,\"Only owner\");\n        _releaseTime[tokenId]=block.timestamp+lockPreiodInDays*24*60*60*1000;\n        _staked[tokenId]= true;\n        return true;\n    }\n\n    function release(uint256 tokenId) public returns(bool){\n        require(_exists(tokenId), \"ERC721Metadata: URI query for nonexistent token\");\n        require(block.timestamp>=releaseTime(tokenId), \"TokenTimelock: current time is before release time\");\n        _staked[tokenId]=false;\n        return true;\n    }\n    function getNFTOwner(uint256 tokenId) public view returns(address){\n        require(_exists(tokenId), \"ERC721Metadata: URI query for nonexistent token\");\n        return _owners[tokenId];\n    }\n\n    function releaseTime(uint256 tokenId) public view returns (uint256) {\n        return _releaseTime[tokenId];\n    }\n}",
  "sourcePath": "/Users/rogueguy/Documents/IDSToken/contracts/IDSNFTMP.sol",
  "compiler": {
    "name": "solc",
    "version": "0.8.0+commit.c7dfd78e.Emscripten.clang"
  },
  "schemaVersion": "3.4.1",
  "updatedAt": "2022-03-26T08:02:48.440Z",
  "networkType": "ethereum",
  "devdoc": {
    "kind": "dev",
    "methods": {
      "balanceOf(address)": {
        "details": "See {IERC20-balanceOf}."
      },
      "balanceOfNFTOwner(address)": {
        "details": "See {IERC721-balanceOf}."
      },
      "name()": {
        "details": "Returns the name of the token."
      },
      "nameOfNFT()": {
        "details": "See {IERC721Metadata-name}."
      },
      "ownerOfNFT(uint256)": {
        "details": "See {IERC721-ownerOf}."
      },
      "symbol()": {
        "details": "Returns the symbol of the token, usually a shorter version of the name."
      },
      "symbolOfNFT()": {
        "details": "See {IERC721Metadata-symbol}."
      },
      "tokenURI(uint256)": {
        "details": "See {IERC721Metadata-tokenURI}."
      },
      "totalSupply()": {
        "details": "See {IERC20-totalSupply}."
      }
    },
    "version": 1
  },
  "userdoc": {
    "kind": "user",
    "methods": {},
    "version": 1
  }
}