{
  "contractName": "IDSERC721",
  "abi": [
    {
      "inputs": [],
      "stateMutability": "nonpayable",
      "type": "constructor"
    },
    {
      "anonymous": false,
      "inputs": [
        {
          "indexed": false,
          "internalType": "address",
          "name": "",
          "type": "address"
        },
        {
          "indexed": false,
          "internalType": "address",
          "name": "",
          "type": "address"
        },
        {
          "indexed": false,
          "internalType": "uint256",
          "name": "",
          "type": "uint256"
        }
      ],
      "name": "TransferNFT",
      "type": "event"
    },
    {
      "inputs": [
        {
          "internalType": "address",
          "name": "owner",
          "type": "address"
        }
      ],
      "name": "balanceOfNFTOwner",
      "outputs": [
        {
          "internalType": "uint256",
          "name": "",
          "type": "uint256"
        }
      ],
      "stateMutability": "view",
      "type": "function"
    },
    {
      "inputs": [
        {
          "internalType": "uint256",
          "name": "tokenId",
          "type": "uint256"
        }
      ],
      "name": "ownerOfNFT",
      "outputs": [
        {
          "internalType": "address",
          "name": "",
          "type": "address"
        }
      ],
      "stateMutability": "view",
      "type": "function"
    },
    {
      "inputs": [],
      "name": "nameOfNFT",
      "outputs": [
        {
          "internalType": "string",
          "name": "",
          "type": "string"
        }
      ],
      "stateMutability": "view",
      "type": "function"
    },
    {
      "inputs": [],
      "name": "symbolOfNFT",
      "outputs": [
        {
          "internalType": "string",
          "name": "",
          "type": "string"
        }
      ],
      "stateMutability": "view",
      "type": "function"
    },
    {
      "inputs": [
        {
          "internalType": "uint256",
          "name": "tokenId",
          "type": "uint256"
        }
      ],
      "name": "tokenURI",
      "outputs": [
        {
          "internalType": "string",
          "name": "",
          "type": "string"
        }
      ],
      "stateMutability": "view",
      "type": "function"
    }
  ],
  "bytecode": "0x608060405234801561001057600080fd5b506040518060400160405280600b81526020017f4944534e4654544f4b454e0000000000000000000000000000000000000000008152506000908051906020019061005c9291906100ae565b506040518060400160405280600681526020017f4944534e46540000000000000000000000000000000000000000000000000000815250600190805190602001906100a89291906100ae565b506101b2565b8280546100ba90610151565b90600052602060002090601f0160209004810192826100dc5760008555610123565b82601f106100f557805160ff1916838001178555610123565b82800160010185558215610123579182015b82811115610122578251825591602001919060010190610107565b5b5090506101309190610134565b5090565b5b8082111561014d576000816000905550600101610135565b5090565b6000600282049050600182168061016957607f821691505b6020821081141561017d5761017c610183565b5b50919050565b7f4e487b7100000000000000000000000000000000000000000000000000000000600052602260045260246000fd5b610989806101c16000396000f3fe608060405234801561001057600080fd5b5060043610610074576000357c0100000000000000000000000000000000000000000000000000000000900480632d8a746e14610079578063bd5e4ebc146100a9578063bd934d1b146100c7578063c87b56dd146100f7578063f1b06f3914610127575b600080fd5b610093600480360381019061008e9190610539565b610145565b6040516100a0919061075b565b60405180910390f35b6100b16101f7565b6040516100be9190610776565b60405180910390f35b6100e160048036038101906100dc9190610510565b610289565b6040516100ee91906107f8565b60405180910390f35b610111600480360381019061010c9190610539565b610341565b60405161011e9190610776565b60405180910390f35b61012f6103e8565b60405161013c9190610776565b60405180910390f35b6000806002600084815260200190815260200160002060009054906101000a900473ffffffffffffffffffffffffffffffffffffffff169050600073ffffffffffffffffffffffffffffffffffffffff168173ffffffffffffffffffffffffffffffffffffffff1614156101ee576040517f08c379a00000000000000000000000000000000000000000000000000000000081526004016101e5906107b8565b60405180910390fd5b80915050919050565b606060008054610206906108a9565b80601f0160208091040260200160405190810160405280929190818152602001828054610232906108a9565b801561027f5780601f106102545761010080835404028352916020019161027f565b820191906000526020600020905b81548152906001019060200180831161026257829003601f168201915b5050505050905090565b60008073ffffffffffffffffffffffffffffffffffffffff168273ffffffffffffffffffffffffffffffffffffffff1614156102fa576040517f08c379a00000000000000000000000000000000000000000000000000000000081526004016102f190610798565b60405180910390fd5b600360008373ffffffffffffffffffffffffffffffffffffffff1673ffffffffffffffffffffffffffffffffffffffff168152602001908152602001600020549050919050565b606061034c8261047a565b61038b576040517f08c379a0000000000000000000000000000000000000000000000000000000008152600401610382906107d8565b60405180910390fd5b600060405180602001604052806000815250905060008151116103bd57604051806020016040528060008152506103e0565b80836040516020016103d0929190610733565b6040516020818303038152906040525b915050919050565b6060600180546103f7906108a9565b80601f0160208091040260200160405190810160405280929190818152602001828054610423906108a9565b80156104705780601f1061044557610100808354040283529160200191610470565b820191906000526020600020905b81548152906001019060200180831161045357829003601f168201915b5050505050905090565b60008073ffffffffffffffffffffffffffffffffffffffff166002600084815260200190815260200160002060009054906101000a900473ffffffffffffffffffffffffffffffffffffffff1673ffffffffffffffffffffffffffffffffffffffff1614159050919050565b6000813590506104f581610925565b92915050565b60008135905061050a8161093c565b92915050565b60006020828403121561052257600080fd5b6000610530848285016104e6565b91505092915050565b60006020828403121561054b57600080fd5b6000610559848285016104fb565b91505092915050565b61056b8161083a565b82525050565b600061057c82610813565b610586818561081e565b9350610596818560208601610876565b61059f81610914565b840191505092915050565b60006105b582610813565b6105bf818561082f565b93506105cf818560208601610876565b80840191505092915050565b60006105e8602a8361081e565b91507f4552433732313a2062616c616e636520717565727920666f7220746865207a6560008301527f726f2061646472657373000000000000000000000000000000000000000000006020830152604082019050919050565b600061064e60298361081e565b91507f4552433732313a206f776e657220717565727920666f72206e6f6e657869737460008301527f656e7420746f6b656e00000000000000000000000000000000000000000000006020830152604082019050919050565b60006106b4602f8361081e565b91507f4552433732314d657461646174613a2055524920717565727920666f72206e6f60008301527f6e6578697374656e7420746f6b656e00000000000000000000000000000000006020830152604082019050919050565b6107168161086c565b82525050565b61072d6107288261086c565b6108db565b82525050565b600061073f82856105aa565b915061074b828461071c565b6020820191508190509392505050565b60006020820190506107706000830184610562565b92915050565b600060208201905081810360008301526107908184610571565b905092915050565b600060208201905081810360008301526107b1816105db565b9050919050565b600060208201905081810360008301526107d181610641565b9050919050565b600060208201905081810360008301526107f1816106a7565b9050919050565b600060208201905061080d600083018461070d565b92915050565b600081519050919050565b600082825260208201905092915050565b600081905092915050565b60006108458261084c565b9050919050565b600073ffffffffffffffffffffffffffffffffffffffff82169050919050565b6000819050919050565b60005b83811015610894578082015181840152602081019050610879565b838111156108a3576000848401525b50505050565b600060028204905060018216806108c157607f821691505b602082108114156108d5576108d46108e5565b5b50919050565b6000819050919050565b7f4e487b7100000000000000000000000000000000000000000000000000000000600052602260045260246000fd5b6000601f19601f8301169050919050565b61092e8161083a565b811461093957600080fd5b50565b6109458161086c565b811461095057600080fd5b5056fea2646970667358221220494977d5bade78496fce164fb0f06e9575caf74e11f50baa421917b3d866c6bf64736f6c63430008000033",
  "immutableReferences": {},
  "source": "pragma solidity ^0.8.0;\n\ncontract IDSERC721{\n    // Token name\n    string  _nameNFT;\n\n    // Token symbol\n    string  _symbolNFT;\n\n    // Mapping from token ID to owner address\n    mapping(uint256 => address)  _owners;\n\n    // Mapping owner address to token count\n    mapping(address => uint256)  _balancesNFT;\n\n    event TransferNFT(address, address, uint256);\n    /**\n     * @dev Initializes the contract by setting a `name` and a `symbol` to the token collection.\n     */\n    constructor() {\n        _nameNFT = \"IDSNFTTOKEN\";\n        _symbolNFT = \"IDSNFT\";\n    }\n        function mintNFT(address to, uint256 tokenId) internal virtual {\n        require(to != address(0), \"ERC721: mint to the zero address\");\n        require(!_exists(tokenId), \"ERC721: token already minted\");\n\n        _balancesNFT[to] += 1;\n        _owners[tokenId] = to;\n\n        emit TransferNFT(address(0), to, tokenId);\n\n    }\n\n        function transferNFT(\n        address from,\n        address to,\n        uint256 tokenId\n    ) internal virtual {\n        require(ownerOfNFT(tokenId) == from, \"ERC721: transfer from incorrect owner\");\n        require(to != address(0), \"ERC721: transfer to the zero address\");\n\n        _balancesNFT[from] -= 1;\n        _balancesNFT[to] += 1;\n        _owners[tokenId] = to;\n\n        emit TransferNFT(from, to, tokenId);\n    }\n\n        /**\n     * @dev See {IERC721-balanceOf}.\n     */\n    function balanceOfNFTOwner(address owner) public view virtual  returns (uint256) {\n        require(owner != address(0), \"ERC721: balance query for the zero address\");\n        return _balancesNFT[owner];\n    }\n\n        /**\n     * @dev See {IERC721-ownerOf}.\n     */\n    function ownerOfNFT(uint256 tokenId) public view virtual  returns (address) {\n        address owner = _owners[tokenId];\n        require(owner != address(0), \"ERC721: owner query for nonexistent token\");\n        return owner;\n    }\n\n    /**\n     * @dev See {IERC721Metadata-name}.\n     */\n    function nameOfNFT() public view virtual  returns (string memory) {\n        return _nameNFT;\n    }\n\n    /**\n     * @dev See {IERC721Metadata-symbol}.\n     */\n    function symbolOfNFT() public view virtual  returns (string memory) {\n        return _symbolNFT;\n    }\n    \n     /**\n     * @dev See {IERC721Metadata-tokenURI}.\n     */\n    function tokenURI(uint256 tokenId) public view virtual  returns (string memory) {\n        require(_exists(tokenId), \"ERC721Metadata: URI query for nonexistent token\");\n\n        string memory baseURI = \"\";\n        return bytes(baseURI).length > 0 ? string(abi.encodePacked(baseURI, tokenId)) : \"\";\n    }\n        \n     /**\n     * @dev Destroys `tokenId`.\n     * The approval is cleared when the token is burned.\n     *\n     * Requirements:\n     *\n     * - `tokenId` must exist.\n     *\n     * Emits a {Transfer} event.\n     */\n    function _burn(uint256 tokenId) internal virtual {\n        address owner = ownerOfNFT(tokenId);\n\n        _balancesNFT[owner] -= 1;\n        delete _owners[tokenId];\n\n        emit TransferNFT(owner, address(0), tokenId);\n\n    }\n\n     /**\n     * @dev Returns whether `tokenId` exists.\n     *\n     * Tokens can be managed by their owner or approved accounts via {approve} or {setApprovalForAll}.\n     *\n     * Tokens start existing when they are minted (`_mint`),\n     * and stop existing when they are burned (`_burn`).\n     */\n    function _exists(uint256 tokenId) internal view virtual returns (bool) {\n        return _owners[tokenId] != address(0);\n    }\n    }",
  "sourcePath": "/Users/rogueguy/Documents/IDSToken/contracts/IDSERC721.sol",
  "compiler": {
    "name": "solc",
    "version": "0.8.0+commit.c7dfd78e.Emscripten.clang"
  },
  "schemaVersion": "3.4.1",
  "updatedAt": "2022-03-20T06:12:53.085Z",
  "devdoc": {
    "kind": "dev",
    "methods": {
      "balanceOfNFTOwner(address)": {
        "details": "See {IERC721-balanceOf}."
      },
      "constructor": {
        "details": "Initializes the contract by setting a `name` and a `symbol` to the token collection."
      },
      "nameOfNFT()": {
        "details": "See {IERC721Metadata-name}."
      },
      "ownerOfNFT(uint256)": {
        "details": "See {IERC721-ownerOf}."
      },
      "symbolOfNFT()": {
        "details": "See {IERC721Metadata-symbol}."
      },
      "tokenURI(uint256)": {
        "details": "See {IERC721Metadata-tokenURI}."
      }
    },
    "version": 1
  },
  "userdoc": {
    "kind": "user",
    "methods": {},
    "version": 1
  }
}