{
  "contractName": "IDSNFTMP",
  "abi": [
    {
      "inputs": [],
      "stateMutability": "nonpayable",
      "type": "constructor"
    },
    {
      "anonymous": false,
      "inputs": [
        {
          "indexed": false,
          "internalType": "address",
          "name": "",
          "type": "address"
        },
        {
          "indexed": false,
          "internalType": "address",
          "name": "",
          "type": "address"
        },
        {
          "indexed": false,
          "internalType": "uint256",
          "name": "",
          "type": "uint256"
        }
      ],
      "name": "Transfer",
      "type": "event"
    },
    {
      "anonymous": false,
      "inputs": [
        {
          "indexed": false,
          "internalType": "address",
          "name": "",
          "type": "address"
        },
        {
          "indexed": false,
          "internalType": "address",
          "name": "",
          "type": "address"
        },
        {
          "indexed": false,
          "internalType": "uint256",
          "name": "",
          "type": "uint256"
        }
      ],
      "name": "TransferNFT",
      "type": "event"
    },
    {
      "inputs": [
        {
          "internalType": "address",
          "name": "account",
          "type": "address"
        }
      ],
      "name": "balanceOf",
      "outputs": [
        {
          "internalType": "uint256",
          "name": "",
          "type": "uint256"
        }
      ],
      "stateMutability": "view",
      "type": "function",
      "constant": true
    },
    {
      "inputs": [
        {
          "internalType": "address",
          "name": "owner",
          "type": "address"
        }
      ],
      "name": "balanceOfNFTOwner",
      "outputs": [
        {
          "internalType": "uint256",
          "name": "",
          "type": "uint256"
        }
      ],
      "stateMutability": "view",
      "type": "function",
      "constant": true
    },
    {
      "inputs": [],
      "name": "decimals",
      "outputs": [
        {
          "internalType": "uint8",
          "name": "",
          "type": "uint8"
        }
      ],
      "stateMutability": "view",
      "type": "function",
      "constant": true
    },
    {
      "inputs": [],
      "name": "name",
      "outputs": [
        {
          "internalType": "string",
          "name": "",
          "type": "string"
        }
      ],
      "stateMutability": "view",
      "type": "function",
      "constant": true
    },
    {
      "inputs": [],
      "name": "nameOfNFT",
      "outputs": [
        {
          "internalType": "string",
          "name": "",
          "type": "string"
        }
      ],
      "stateMutability": "view",
      "type": "function",
      "constant": true
    },
    {
      "inputs": [
        {
          "internalType": "uint256",
          "name": "tokenId",
          "type": "uint256"
        }
      ],
      "name": "ownerOfNFT",
      "outputs": [
        {
          "internalType": "address",
          "name": "",
          "type": "address"
        }
      ],
      "stateMutability": "view",
      "type": "function",
      "constant": true
    },
    {
      "inputs": [],
      "name": "symbol",
      "outputs": [
        {
          "internalType": "string",
          "name": "",
          "type": "string"
        }
      ],
      "stateMutability": "view",
      "type": "function",
      "constant": true
    },
    {
      "inputs": [],
      "name": "symbolOfNFT",
      "outputs": [
        {
          "internalType": "string",
          "name": "",
          "type": "string"
        }
      ],
      "stateMutability": "view",
      "type": "function",
      "constant": true
    },
    {
      "inputs": [
        {
          "internalType": "uint256",
          "name": "tokenId",
          "type": "uint256"
        }
      ],
      "name": "tokenURI",
      "outputs": [
        {
          "internalType": "string",
          "name": "",
          "type": "string"
        }
      ],
      "stateMutability": "view",
      "type": "function",
      "constant": true
    },
    {
      "inputs": [],
      "name": "totalSupply",
      "outputs": [
        {
          "internalType": "uint256",
          "name": "",
          "type": "uint256"
        }
      ],
      "stateMutability": "view",
      "type": "function",
      "constant": true
    },
    {
      "inputs": [
        {
          "internalType": "uint256",
          "name": "amount",
          "type": "uint256"
        }
      ],
      "name": "mintTokens",
      "outputs": [
        {
          "internalType": "bool",
          "name": "",
          "type": "bool"
        }
      ],
      "stateMutability": "nonpayable",
      "type": "function"
    },
    {
      "inputs": [
        {
          "internalType": "address",
          "name": "to",
          "type": "address"
        }
      ],
      "name": "mintNFTs",
      "outputs": [
        {
          "internalType": "bool",
          "name": "",
          "type": "bool"
        }
      ],
      "stateMutability": "nonpayable",
      "type": "function"
    },
    {
      "inputs": [
        {
          "internalType": "uint256",
          "name": "tokenId",
          "type": "uint256"
        }
      ],
      "name": "buyNFT",
      "outputs": [
        {
          "internalType": "bool",
          "name": "",
          "type": "bool"
        }
      ],
      "stateMutability": "nonpayable",
      "type": "function"
    },
    {
      "inputs": [
        {
          "internalType": "uint256",
          "name": "tokenId",
          "type": "uint256"
        }
      ],
      "name": "sellNFT",
      "outputs": [
        {
          "internalType": "bool",
          "name": "",
          "type": "bool"
        }
      ],
      "stateMutability": "nonpayable",
      "type": "function"
    },
    {
      "inputs": [
        {
          "internalType": "uint256",
          "name": "tokenId",
          "type": "uint256"
        }
      ],
      "name": "getNFTOwner",
      "outputs": [
        {
          "internalType": "address",
          "name": "",
          "type": "address"
        }
      ],
      "stateMutability": "view",
      "type": "function",
      "constant": true
    }
  ],
  "bytecode": "0x60806040523480156200001157600080fd5b5033600460006101000a81548173ffffffffffffffffffffffffffffffffffffffff021916908373ffffffffffffffffffffffffffffffffffffffff1602179055506040518060400160405280600881526020017f494453546f6b656e00000000000000000000000000000000000000000000000081525060029080519060200190620000a0929190620001d2565b506040518060400160405280600381526020017f494453000000000000000000000000000000000000000000000000000000000081525060039080519060200190620000ee929190620001d2565b506040518060400160405280600b81526020017f4944534e4654544f4b454e000000000000000000000000000000000000000000815250600590805190602001906200013c929190620001d2565b506040518060400160405280600681526020017f4944534e46540000000000000000000000000000000000000000000000000000815250600690805190602001906200018a929190620001d2565b5033600460006101000a81548173ffffffffffffffffffffffffffffffffffffffff021916908373ffffffffffffffffffffffffffffffffffffffff160217905550620002e7565b828054620001e09062000282565b90600052602060002090601f01602090048101928262000204576000855562000250565b82601f106200021f57805160ff191683800117855562000250565b8280016001018555821562000250579182015b828111156200024f57825182559160200191906001019062000232565b5b5090506200025f919062000263565b5090565b5b808211156200027e57600081600090555060010162000264565b5090565b600060028204905060018216806200029b57607f821691505b60208210811415620002b257620002b1620002b8565b5b50919050565b7f4e487b7100000000000000000000000000000000000000000000000000000000600052602260045260246000fd5b611d4080620002f76000396000f3fe608060405234801561001057600080fd5b5060043610610112576000357c01000000000000000000000000000000000000000000000000000000009004806397304ced116100b4578063c87b56dd11610083578063c87b56dd146102cd578063deaea2e3146102fd578063ee9cdfb31461032d578063f1b06f391461035d57610112565b806397304ced1461021f578063a197eab91461024f578063bd5e4ebc1461027f578063bd934d1b1461029d57610112565b8063313ce567116100f0578063313ce5671461018357806351ed8288146101a157806370a08231146101d157806395d89b411461020157610112565b806306fdde031461011757806318160ddd146101355780632d8a746e14610153575b600080fd5b61011f61037b565b60405161012c9190611920565b60405180910390f35b61013d61040d565b60405161014a9190611ac2565b60405180910390f35b61016d6004803603810190610168919061134f565b610417565b60405161017a91906118b3565b60405180910390f35b61018b6104c9565b6040516101989190611add565b60405180910390f35b6101bb60048036038101906101b6919061134f565b6104d2565b6040516101c89190611905565b60405180910390f35b6101eb60048036038101906101e69190611326565b610624565b6040516101f89190611ac2565b60405180910390f35b61020961066c565b6040516102169190611920565b60405180910390f35b6102396004803603810190610234919061134f565b6106fe565b6040516102469190611905565b60405180910390f35b61026960048036038101906102649190611326565b610713565b6040516102769190611905565b60405180910390f35b610287610744565b6040516102949190611920565b60405180910390f35b6102b760048036038101906102b29190611326565b6107d6565b6040516102c49190611ac2565b60405180910390f35b6102e760048036038101906102e2919061134f565b61088e565b6040516102f49190611920565b60405180910390f35b6103176004803603810190610312919061134f565b610935565b60405161032491906118b3565b60405180910390f35b6103476004803603810190610342919061134f565b6109ba565b6040516103549190611905565b60405180910390f35b610365610ad7565b6040516103729190611920565b60405180910390f35b60606002805461038a90611c31565b80601f01602080910402602001604051908101604052809291908181526020018280546103b690611c31565b80156104035780601f106103d857610100808354040283529160200191610403565b820191906000526020600020905b8154815290600101906020018083116103e657829003601f168201915b5050505050905090565b6000600154905090565b6000806007600084815260200190815260200160002060009054906101000a900473ffffffffffffffffffffffffffffffffffffffff169050600073ffffffffffffffffffffffffffffffffffffffff168173ffffffffffffffffffffffffffffffffffffffff1614156104c0576040517f08c379a00000000000000000000000000000000000000000000000000000000081526004016104b790611a22565b60405180910390fd5b80915050919050565b60006012905090565b60006104dd82610b69565b61051c576040517f08c379a000000000000000000000000000000000000000000000000000000000815260040161051390611a62565b60405180910390fd5b60016000803373ffffffffffffffffffffffffffffffffffffffff1673ffffffffffffffffffffffffffffffffffffffff16815260200190815260200160002054101561059e576040517f08c379a000000000000000000000000000000000000000000000000000000000815260040161059590611962565b60405180910390fd5b6105dd336007600085815260200190815260200160002060009054906101000a900473ffffffffffffffffffffffffffffffffffffffff166001610bd5565b61061b6007600084815260200190815260200160002060009054906101000a900473ffffffffffffffffffffffffffffffffffffffff163384610e16565b60019050919050565b60008060008373ffffffffffffffffffffffffffffffffffffffff1673ffffffffffffffffffffffffffffffffffffffff168152602001908152602001600020549050919050565b60606003805461067b90611c31565b80601f01602080910402602001604051908101604052809291908181526020018280546106a790611c31565b80156106f45780601f106106c9576101008083540402835291602001916106f4565b820191906000526020600020905b8154815290600101906020018083116106d757829003601f168201915b5050505050905090565b600061070a338361103c565b60019050919050565b60006001600960008282546107289190611b1f565b9250508190555061073b8260095461115a565b60019050919050565b60606005805461075390611c31565b80601f016020809104026020016040519081016040528092919081815260200182805461077f90611c31565b80156107cc5780601f106107a1576101008083540402835291602001916107cc565b820191906000526020600020905b8154815290600101906020018083116107af57829003601f168201915b5050505050905090565b60008073ffffffffffffffffffffffffffffffffffffffff168273ffffffffffffffffffffffffffffffffffffffff161415610847576040517f08c379a000000000000000000000000000000000000000000000000000000000815260040161083e90611a02565b60405180910390fd5b600860008373ffffffffffffffffffffffffffffffffffffffff1673ffffffffffffffffffffffffffffffffffffffff168152602001908152602001600020549050919050565b606061089982610b69565b6108d8576040517f08c379a00000000000000000000000000000000000000000000000000000000081526004016108cf90611a62565b60405180910390fd5b6000604051806020016040528060008152509050600081511161090a576040518060200160405280600081525061092d565b808360405160200161091d92919061188b565b6040516020818303038152906040525b915050919050565b600061094082610b69565b61097f576040517f08c379a000000000000000000000000000000000000000000000000000000000815260040161097690611a62565b60405180910390fd5b6007600083815260200190815260200160002060009054906101000a900473ffffffffffffffffffffffffffffffffffffffff169050919050565b60006109c582610b69565b610a04576040517f08c379a00000000000000000000000000000000000000000000000000000000081526004016109fb90611a62565b60405180910390fd5b600460009054906101000a900473ffffffffffffffffffffffffffffffffffffffff166007600084815260200190815260200160002060006101000a81548173ffffffffffffffffffffffffffffffffffffffff021916908373ffffffffffffffffffffffffffffffffffffffff16021790555060016000803373ffffffffffffffffffffffffffffffffffffffff1673ffffffffffffffffffffffffffffffffffffffff1681526020019081526020016000206000828254610ac79190611b1f565b9250508190555060019050919050565b606060068054610ae690611c31565b80601f0160208091040260200160405190810160405280929190818152602001828054610b1290611c31565b8015610b5f5780601f10610b3457610100808354040283529160200191610b5f565b820191906000526020600020905b815481529060010190602001808311610b4257829003601f168201915b5050505050905090565b60008073ffffffffffffffffffffffffffffffffffffffff166007600084815260200190815260200160002060009054906101000a900473ffffffffffffffffffffffffffffffffffffffff1673ffffffffffffffffffffffffffffffffffffffff1614159050919050565b600073ffffffffffffffffffffffffffffffffffffffff168373ffffffffffffffffffffffffffffffffffffffff161415610c45576040517f08c379a0000000000000000000000000000000000000000000000000000000008152600401610c3c90611a82565b60405180910390fd5b600073ffffffffffffffffffffffffffffffffffffffff168273ffffffffffffffffffffffffffffffffffffffff161415610cb5576040517f08c379a0000000000000000000000000000000000000000000000000000000008152600401610cac90611942565b60405180910390fd5b60008060008573ffffffffffffffffffffffffffffffffffffffff1673ffffffffffffffffffffffffffffffffffffffff16815260200190815260200160002054905081811015610d3b576040517f08c379a0000000000000000000000000000000000000000000000000000000008152600401610d32906119c2565b60405180910390fd5b8181036000808673ffffffffffffffffffffffffffffffffffffffff1673ffffffffffffffffffffffffffffffffffffffff16815260200190815260200160002081905550816000808573ffffffffffffffffffffffffffffffffffffffff1673ffffffffffffffffffffffffffffffffffffffff1681526020019081526020016000206000828254610dce9190611b1f565b925050819055507fddf252ad1be2c89b69c2b068fc378daa952ba7f163c4a11628f55a4df523b3ef848484604051610e08939291906118ce565b60405180910390a150505050565b8273ffffffffffffffffffffffffffffffffffffffff16610e3682610417565b73ffffffffffffffffffffffffffffffffffffffff1614610e8c576040517f08c379a0000000000000000000000000000000000000000000000000000000008152600401610e8390611982565b60405180910390fd5b600073ffffffffffffffffffffffffffffffffffffffff168273ffffffffffffffffffffffffffffffffffffffff161415610efc576040517f08c379a0000000000000000000000000000000000000000000000000000000008152600401610ef3906119e2565b60405180910390fd5b6001600860008573ffffffffffffffffffffffffffffffffffffffff1673ffffffffffffffffffffffffffffffffffffffff1681526020019081526020016000206000828254610f4c9190611b75565b925050819055506001600860008473ffffffffffffffffffffffffffffffffffffffff1673ffffffffffffffffffffffffffffffffffffffff1681526020019081526020016000206000828254610fa39190611b1f565b92505081905550816007600083815260200190815260200160002060006101000a81548173ffffffffffffffffffffffffffffffffffffffff021916908373ffffffffffffffffffffffffffffffffffffffff1602179055507fa64cdec004d2859ac7547f4ed3252f53d0fa0b8dcbcc93a47894eee072714b6283838360405161102f939291906118ce565b60405180910390a1505050565b600073ffffffffffffffffffffffffffffffffffffffff168273ffffffffffffffffffffffffffffffffffffffff1614156110ac576040517f08c379a00000000000000000000000000000000000000000000000000000000081526004016110a390611aa2565b60405180910390fd5b80600160008282546110be9190611b1f565b92505081905550806000808473ffffffffffffffffffffffffffffffffffffffff1673ffffffffffffffffffffffffffffffffffffffff16815260200190815260200160002060008282546111139190611b1f565b925050819055507fddf252ad1be2c89b69c2b068fc378daa952ba7f163c4a11628f55a4df523b3ef6000838360405161114e939291906118ce565b60405180910390a15050565b600073ffffffffffffffffffffffffffffffffffffffff168273ffffffffffffffffffffffffffffffffffffffff1614156111ca576040517f08c379a00000000000000000000000000000000000000000000000000000000081526004016111c190611a42565b60405180910390fd5b6111d381610b69565b15611213576040517f08c379a000000000000000000000000000000000000000000000000000000000815260040161120a906119a2565b60405180910390fd5b6001600860008473ffffffffffffffffffffffffffffffffffffffff1673ffffffffffffffffffffffffffffffffffffffff16815260200190815260200160002060008282546112639190611b1f565b92505081905550816007600083815260200190815260200160002060006101000a81548173ffffffffffffffffffffffffffffffffffffffff021916908373ffffffffffffffffffffffffffffffffffffffff1602179055507fa64cdec004d2859ac7547f4ed3252f53d0fa0b8dcbcc93a47894eee072714b62600083836040516112f0939291906118ce565b60405180910390a15050565b60008135905061130b81611cdc565b92915050565b60008135905061132081611cf3565b92915050565b60006020828403121561133857600080fd5b6000611346848285016112fc565b91505092915050565b60006020828403121561136157600080fd5b600061136f84828501611311565b91505092915050565b61138181611ba9565b82525050565b61139081611bbb565b82525050565b60006113a182611af8565b6113ab8185611b03565b93506113bb818560208601611bfe565b6113c481611ccb565b840191505092915050565b60006113da82611af8565b6113e48185611b14565b93506113f4818560208601611bfe565b80840191505092915050565b600061140d602383611b03565b91507f45524332303a207472616e7366657220746f20746865207a65726f206164647260008301527f65737300000000000000000000000000000000000000000000000000000000006020830152604082019050919050565b6000611473602383611b03565b91507f45524332304d657461646174613a20496e73756666696369656e742042616c6160008301527f6e636500000000000000000000000000000000000000000000000000000000006020830152604082019050919050565b60006114d9602583611b03565b91507f4552433732313a207472616e736665722066726f6d20696e636f72726563742060008301527f6f776e65720000000000000000000000000000000000000000000000000000006020830152604082019050919050565b600061153f601c83611b03565b91507f4552433732313a20746f6b656e20616c7265616479206d696e746564000000006000830152602082019050919050565b600061157f602683611b03565b91507f45524332303a207472616e7366657220616d6f756e742065786365656473206260008301527f616c616e636500000000000000000000000000000000000000000000000000006020830152604082019050919050565b60006115e5602483611b03565b91507f4552433732313a207472616e7366657220746f20746865207a65726f2061646460008301527f72657373000000000000000000000000000000000000000000000000000000006020830152604082019050919050565b600061164b602a83611b03565b91507f4552433732313a2062616c616e636520717565727920666f7220746865207a6560008301527f726f2061646472657373000000000000000000000000000000000000000000006020830152604082019050919050565b60006116b1602983611b03565b91507f4552433732313a206f776e657220717565727920666f72206e6f6e657869737460008301527f656e7420746f6b656e00000000000000000000000000000000000000000000006020830152604082019050919050565b6000611717602083611b03565b91507f4552433732313a206d696e7420746f20746865207a65726f20616464726573736000830152602082019050919050565b6000611757602f83611b03565b91507f4552433732314d657461646174613a2055524920717565727920666f72206e6f60008301527f6e6578697374656e7420746f6b656e00000000000000000000000000000000006020830152604082019050919050565b60006117bd602583611b03565b91507f45524332303a207472616e736665722066726f6d20746865207a65726f20616460008301527f64726573730000000000000000000000000000000000000000000000000000006020830152604082019050919050565b6000611823601f83611b03565b91507f45524332303a206d696e7420746f20746865207a65726f2061646472657373006000830152602082019050919050565b61185f81611be7565b82525050565b61187661187182611be7565b611c63565b82525050565b61188581611bf1565b82525050565b600061189782856113cf565b91506118a38284611865565b6020820191508190509392505050565b60006020820190506118c86000830184611378565b92915050565b60006060820190506118e36000830186611378565b6118f06020830185611378565b6118fd6040830184611856565b949350505050565b600060208201905061191a6000830184611387565b92915050565b6000602082019050818103600083015261193a8184611396565b905092915050565b6000602082019050818103600083015261195b81611400565b9050919050565b6000602082019050818103600083015261197b81611466565b9050919050565b6000602082019050818103600083015261199b816114cc565b9050919050565b600060208201905081810360008301526119bb81611532565b9050919050565b600060208201905081810360008301526119db81611572565b9050919050565b600060208201905081810360008301526119fb816115d8565b9050919050565b60006020820190508181036000830152611a1b8161163e565b9050919050565b60006020820190508181036000830152611a3b816116a4565b9050919050565b60006020820190508181036000830152611a5b8161170a565b9050919050565b60006020820190508181036000830152611a7b8161174a565b9050919050565b60006020820190508181036000830152611a9b816117b0565b9050919050565b60006020820190508181036000830152611abb81611816565b9050919050565b6000602082019050611ad76000830184611856565b92915050565b6000602082019050611af2600083018461187c565b92915050565b600081519050919050565b600082825260208201905092915050565b600081905092915050565b6000611b2a82611be7565b9150611b3583611be7565b9250827fffffffffffffffffffffffffffffffffffffffffffffffffffffffffffffffff03821115611b6a57611b69611c6d565b5b828201905092915050565b6000611b8082611be7565b9150611b8b83611be7565b925082821015611b9e57611b9d611c6d565b5b828203905092915050565b6000611bb482611bc7565b9050919050565b60008115159050919050565b600073ffffffffffffffffffffffffffffffffffffffff82169050919050565b6000819050919050565b600060ff82169050919050565b60005b83811015611c1c578082015181840152602081019050611c01565b83811115611c2b576000848401525b50505050565b60006002820490506001821680611c4957607f821691505b60208210811415611c5d57611c5c611c9c565b5b50919050565b6000819050919050565b7f4e487b7100000000000000000000000000000000000000000000000000000000600052601160045260246000fd5b7f4e487b7100000000000000000000000000000000000000000000000000000000600052602260045260246000fd5b6000601f19601f8301169050919050565b611ce581611ba9565b8114611cf057600080fd5b50565b611cfc81611be7565b8114611d0757600080fd5b5056fea2646970667358221220b5d4114a510c83079a3128974f941f9f4bd9809d7f41571fb7f243876d39b33664736f6c63430008000033",
  "immutableReferences": {},
  "source": "pragma solidity ^0.8.0;\n\nimport './IDSERC20.sol';\nimport './IDSERC721.sol';\n\ncontract IDSNFTMP is IDSERC20, IDSERC721{\n\n    uint256 private _tokenIds;\n\n    constructor(){\n        admin= msg.sender;\n    }\n\n    function mintTokens(uint256 amount) public returns(bool){\n        mintToken(msg.sender, amount);\n        return true;\n    }\n\n    function mintNFTs(address to) public returns(bool){\n        _tokenIds +=1;\n        mintNFT(to, _tokenIds);\n        return true;\n    }\n\n    function buyNFT(uint256 tokenId) public returns(bool){\n        require(_exists(tokenId), \"ERC721Metadata: URI query for nonexistent token\");\n        require(_balances[msg.sender]>=1, \"ERC20Metadata: Insufficient Balance\");\n\n        transferToken(msg.sender,_owners[tokenId], 1);\n\n        transferNFT(_owners[tokenId], msg.sender, tokenId);\n\n        return true;\n    }\n\n    function sellNFT(uint256 tokenId) public returns(bool){\n        require(_exists(tokenId), \"ERC721Metadata: URI query for nonexistent token\");\n\n        _owners[tokenId]= admin;\n        _balances[msg.sender] +=1;\n        return true;\n    }\n\n    function getNFTOwner(uint256 tokenId) public view returns(address){\n        require(_exists(tokenId), \"ERC721Metadata: URI query for nonexistent token\");\n        return _owners[tokenId];\n    }\n}",
  "sourcePath": "/Users/rogueguy/Documents/IDSToken/contracts/IDSNFTMP.sol",
  "compiler": {
    "name": "solc",
    "version": "0.8.0+commit.c7dfd78e.Emscripten.clang"
  },
  "schemaVersion": "3.4.1",
  "updatedAt": "2022-03-20T06:13:40.004Z",
  "networkType": "ethereum",
  "devdoc": {
    "kind": "dev",
    "methods": {
      "balanceOf(address)": {
        "details": "See {IERC20-balanceOf}."
      },
      "balanceOfNFTOwner(address)": {
        "details": "See {IERC721-balanceOf}."
      },
      "name()": {
        "details": "Returns the name of the token."
      },
      "nameOfNFT()": {
        "details": "See {IERC721Metadata-name}."
      },
      "ownerOfNFT(uint256)": {
        "details": "See {IERC721-ownerOf}."
      },
      "symbol()": {
        "details": "Returns the symbol of the token, usually a shorter version of the name."
      },
      "symbolOfNFT()": {
        "details": "See {IERC721Metadata-symbol}."
      },
      "tokenURI(uint256)": {
        "details": "See {IERC721Metadata-tokenURI}."
      },
      "totalSupply()": {
        "details": "See {IERC20-totalSupply}."
      }
    },
    "version": 1
  },
  "userdoc": {
    "kind": "user",
    "methods": {},
    "version": 1
  }
}