{
  "contractName": "IDSNFTMP",
  "abi": [
    {
      "inputs": [],
      "stateMutability": "nonpayable",
      "type": "constructor"
    },
    {
      "anonymous": false,
      "inputs": [
        {
          "indexed": false,
          "internalType": "address",
          "name": "",
          "type": "address"
        },
        {
          "indexed": false,
          "internalType": "address",
          "name": "",
          "type": "address"
        },
        {
          "indexed": false,
          "internalType": "uint256",
          "name": "",
          "type": "uint256"
        }
      ],
      "name": "Transfer",
      "type": "event"
    },
    {
      "anonymous": false,
      "inputs": [
        {
          "indexed": false,
          "internalType": "address",
          "name": "",
          "type": "address"
        },
        {
          "indexed": false,
          "internalType": "address",
          "name": "",
          "type": "address"
        },
        {
          "indexed": false,
          "internalType": "uint256",
          "name": "",
          "type": "uint256"
        }
      ],
      "name": "TransferNFT",
      "type": "event"
    },
    {
      "inputs": [
        {
          "internalType": "address",
          "name": "account",
          "type": "address"
        }
      ],
      "name": "balanceOf",
      "outputs": [
        {
          "internalType": "uint256",
          "name": "",
          "type": "uint256"
        }
      ],
      "stateMutability": "view",
      "type": "function",
      "constant": true
    },
    {
      "inputs": [
        {
          "internalType": "address",
          "name": "owner",
          "type": "address"
        }
      ],
      "name": "balanceOfNFTOwner",
      "outputs": [
        {
          "internalType": "uint256",
          "name": "",
          "type": "uint256"
        }
      ],
      "stateMutability": "view",
      "type": "function",
      "constant": true
    },
    {
      "inputs": [],
      "name": "decimals",
      "outputs": [
        {
          "internalType": "uint8",
          "name": "",
          "type": "uint8"
        }
      ],
      "stateMutability": "view",
      "type": "function",
      "constant": true
    },
    {
      "inputs": [],
      "name": "name",
      "outputs": [
        {
          "internalType": "string",
          "name": "",
          "type": "string"
        }
      ],
      "stateMutability": "view",
      "type": "function",
      "constant": true
    },
    {
      "inputs": [],
      "name": "nameOfNFT",
      "outputs": [
        {
          "internalType": "string",
          "name": "",
          "type": "string"
        }
      ],
      "stateMutability": "view",
      "type": "function",
      "constant": true
    },
    {
      "inputs": [
        {
          "internalType": "uint256",
          "name": "tokenId",
          "type": "uint256"
        }
      ],
      "name": "ownerOfNFT",
      "outputs": [
        {
          "internalType": "address",
          "name": "",
          "type": "address"
        }
      ],
      "stateMutability": "view",
      "type": "function",
      "constant": true
    },
    {
      "inputs": [],
      "name": "symbol",
      "outputs": [
        {
          "internalType": "string",
          "name": "",
          "type": "string"
        }
      ],
      "stateMutability": "view",
      "type": "function",
      "constant": true
    },
    {
      "inputs": [],
      "name": "symbolOfNFT",
      "outputs": [
        {
          "internalType": "string",
          "name": "",
          "type": "string"
        }
      ],
      "stateMutability": "view",
      "type": "function",
      "constant": true
    },
    {
      "inputs": [
        {
          "internalType": "uint256",
          "name": "tokenId",
          "type": "uint256"
        }
      ],
      "name": "tokenURI",
      "outputs": [
        {
          "internalType": "string",
          "name": "",
          "type": "string"
        }
      ],
      "stateMutability": "view",
      "type": "function",
      "constant": true
    },
    {
      "inputs": [],
      "name": "totalSupply",
      "outputs": [
        {
          "internalType": "uint256",
          "name": "",
          "type": "uint256"
        }
      ],
      "stateMutability": "view",
      "type": "function",
      "constant": true
    },
    {
      "inputs": [
        {
          "internalType": "address",
          "name": "to",
          "type": "address"
        },
        {
          "internalType": "uint256",
          "name": "amount",
          "type": "uint256"
        }
      ],
      "name": "mintTokens",
      "outputs": [
        {
          "internalType": "bool",
          "name": "",
          "type": "bool"
        }
      ],
      "stateMutability": "nonpayable",
      "type": "function"
    },
    {
      "inputs": [
        {
          "internalType": "address",
          "name": "to",
          "type": "address"
        }
      ],
      "name": "mintNFTs",
      "outputs": [
        {
          "internalType": "bool",
          "name": "",
          "type": "bool"
        }
      ],
      "stateMutability": "nonpayable",
      "type": "function"
    },
    {
      "inputs": [
        {
          "internalType": "address",
          "name": "to",
          "type": "address"
        },
        {
          "internalType": "uint256",
          "name": "tokenId",
          "type": "uint256"
        }
      ],
      "name": "buyNFT",
      "outputs": [
        {
          "internalType": "bool",
          "name": "",
          "type": "bool"
        }
      ],
      "stateMutability": "nonpayable",
      "type": "function"
    },
    {
      "inputs": [
        {
          "internalType": "uint256",
          "name": "tokenId",
          "type": "uint256"
        }
      ],
      "name": "sellNFT",
      "outputs": [
        {
          "internalType": "bool",
          "name": "",
          "type": "bool"
        }
      ],
      "stateMutability": "nonpayable",
      "type": "function"
    },
    {
      "inputs": [
        {
          "internalType": "uint256",
          "name": "tokenId",
          "type": "uint256"
        }
      ],
      "name": "getNFTOwner",
      "outputs": [
        {
          "internalType": "address",
          "name": "",
          "type": "address"
        }
      ],
      "stateMutability": "view",
      "type": "function",
      "constant": true
    }
  ],
  "bytecode": "0x60806040523480156200001157600080fd5b5033600460006101000a81548173ffffffffffffffffffffffffffffffffffffffff021916908373ffffffffffffffffffffffffffffffffffffffff1602179055506040518060400160405280600881526020017f494453546f6b656e00000000000000000000000000000000000000000000000081525060029080519060200190620000a0929190620001d2565b506040518060400160405280600381526020017f494453000000000000000000000000000000000000000000000000000000000081525060039080519060200190620000ee929190620001d2565b506040518060400160405280600b81526020017f4944534e4654544f4b454e000000000000000000000000000000000000000000815250600590805190602001906200013c929190620001d2565b506040518060400160405280600681526020017f4944534e46540000000000000000000000000000000000000000000000000000815250600690805190602001906200018a929190620001d2565b5033600460006101000a81548173ffffffffffffffffffffffffffffffffffffffff021916908373ffffffffffffffffffffffffffffffffffffffff160217905550620002e7565b828054620001e09062000282565b90600052602060002090601f01602090048101928262000204576000855562000250565b82601f106200021f57805160ff191683800117855562000250565b8280016001018555821562000250579182015b828111156200024f57825182559160200191906001019062000232565b5b5090506200025f919062000263565b5090565b5b808211156200027e57600081600090555060010162000264565b5090565b600060028204905060018216806200029b57607f821691505b60208210811415620002b257620002b1620002b8565b5b50919050565b7f4e487b7100000000000000000000000000000000000000000000000000000000600052602260045260246000fd5b611d7e80620002f76000396000f3fe608060405234801561001057600080fd5b5060043610610112576000357c010000000000000000000000000000000000000000000000000000000090048063a82ba76f116100b4578063deaea2e311610083578063deaea2e3146102cd578063ee9cdfb3146102fd578063f0dda65c1461032d578063f1b06f391461035d57610112565b8063a82ba76f1461021f578063bd5e4ebc1461024f578063bd934d1b1461026d578063c87b56dd1461029d57610112565b8063313ce567116100f0578063313ce5671461018357806370a08231146101a157806395d89b41146101d1578063a197eab9146101ef57610112565b806306fdde031461011757806318160ddd146101355780632d8a746e14610153575b600080fd5b61011f61037b565b60405161012c919061195e565b60405180910390f35b61013d61040d565b60405161014a9190611b00565b60405180910390f35b61016d6004803603810190610168919061138d565b610417565b60405161017a91906118f1565b60405180910390f35b61018b6104c9565b6040516101989190611b1b565b60405180910390f35b6101bb60048036038101906101b69190611328565b6104d2565b6040516101c89190611b00565b60405180910390f35b6101d961051a565b6040516101e6919061195e565b60405180910390f35b61020960048036038101906102049190611328565b6105ac565b6040516102169190611943565b60405180910390f35b61023960048036038101906102349190611351565b6105dd565b6040516102469190611943565b60405180910390f35b610257610730565b604051610264919061195e565b60405180910390f35b61028760048036038101906102829190611328565b6107c2565b6040516102949190611b00565b60405180910390f35b6102b760048036038101906102b2919061138d565b61087a565b6040516102c4919061195e565b60405180910390f35b6102e760048036038101906102e2919061138d565b610921565b6040516102f491906118f1565b60405180910390f35b6103176004803603810190610312919061138d565b6109a6565b6040516103249190611943565b60405180910390f35b61034760048036038101906103429190611351565b610ac3565b6040516103549190611943565b60405180910390f35b610365610ad9565b604051610372919061195e565b60405180910390f35b60606002805461038a90611c6f565b80601f01602080910402602001604051908101604052809291908181526020018280546103b690611c6f565b80156104035780601f106103d857610100808354040283529160200191610403565b820191906000526020600020905b8154815290600101906020018083116103e657829003601f168201915b5050505050905090565b6000600154905090565b6000806007600084815260200190815260200160002060009054906101000a900473ffffffffffffffffffffffffffffffffffffffff169050600073ffffffffffffffffffffffffffffffffffffffff168173ffffffffffffffffffffffffffffffffffffffff1614156104c0576040517f08c379a00000000000000000000000000000000000000000000000000000000081526004016104b790611a60565b60405180910390fd5b80915050919050565b60006012905090565b60008060008373ffffffffffffffffffffffffffffffffffffffff1673ffffffffffffffffffffffffffffffffffffffff168152602001908152602001600020549050919050565b60606003805461052990611c6f565b80601f016020809104026020016040519081016040528092919081815260200182805461055590611c6f565b80156105a25780601f10610577576101008083540402835291602001916105a2565b820191906000526020600020905b81548152906001019060200180831161058557829003601f168201915b5050505050905090565b60006001600960008282546105c19190611b5d565b925050819055506105d482600954610b6b565b60019050919050565b60006105e882610d0d565b610627576040517f08c379a000000000000000000000000000000000000000000000000000000000815260040161061e90611aa0565b60405180910390fd5b60016000808573ffffffffffffffffffffffffffffffffffffffff1673ffffffffffffffffffffffffffffffffffffffff1681526020019081526020016000205410156106a9576040517f08c379a00000000000000000000000000000000000000000000000000000000081526004016106a0906119a0565b60405180910390fd5b6106e8836007600085815260200190815260200160002060009054906101000a900473ffffffffffffffffffffffffffffffffffffffff166001610d79565b6107266007600084815260200190815260200160002060009054906101000a900473ffffffffffffffffffffffffffffffffffffffff168484610fba565b6001905092915050565b60606005805461073f90611c6f565b80601f016020809104026020016040519081016040528092919081815260200182805461076b90611c6f565b80156107b85780601f1061078d576101008083540402835291602001916107b8565b820191906000526020600020905b81548152906001019060200180831161079b57829003601f168201915b5050505050905090565b60008073ffffffffffffffffffffffffffffffffffffffff168273ffffffffffffffffffffffffffffffffffffffff161415610833576040517f08c379a000000000000000000000000000000000000000000000000000000000815260040161082a90611a40565b60405180910390fd5b600860008373ffffffffffffffffffffffffffffffffffffffff1673ffffffffffffffffffffffffffffffffffffffff168152602001908152602001600020549050919050565b606061088582610d0d565b6108c4576040517f08c379a00000000000000000000000000000000000000000000000000000000081526004016108bb90611aa0565b60405180910390fd5b600060405180602001604052806000815250905060008151116108f65760405180602001604052806000815250610919565b80836040516020016109099291906118c9565b6040516020818303038152906040525b915050919050565b600061092c82610d0d565b61096b576040517f08c379a000000000000000000000000000000000000000000000000000000000815260040161096290611aa0565b60405180910390fd5b6007600083815260200190815260200160002060009054906101000a900473ffffffffffffffffffffffffffffffffffffffff169050919050565b60006109b182610d0d565b6109f0576040517f08c379a00000000000000000000000000000000000000000000000000000000081526004016109e790611aa0565b60405180910390fd5b600460009054906101000a900473ffffffffffffffffffffffffffffffffffffffff166007600084815260200190815260200160002060006101000a81548173ffffffffffffffffffffffffffffffffffffffff021916908373ffffffffffffffffffffffffffffffffffffffff16021790555060016000803373ffffffffffffffffffffffffffffffffffffffff1673ffffffffffffffffffffffffffffffffffffffff1681526020019081526020016000206000828254610ab39190611b5d565b9250508190555060019050919050565b6000610acf83836111e0565b6001905092915050565b606060068054610ae890611c6f565b80601f0160208091040260200160405190810160405280929190818152602001828054610b1490611c6f565b8015610b615780601f10610b3657610100808354040283529160200191610b61565b820191906000526020600020905b815481529060010190602001808311610b4457829003601f168201915b5050505050905090565b600073ffffffffffffffffffffffffffffffffffffffff168273ffffffffffffffffffffffffffffffffffffffff161415610bdb576040517f08c379a0000000000000000000000000000000000000000000000000000000008152600401610bd290611a80565b60405180910390fd5b610be481610d0d565b15610c24576040517f08c379a0000000000000000000000000000000000000000000000000000000008152600401610c1b906119e0565b60405180910390fd5b6001600860008473ffffffffffffffffffffffffffffffffffffffff1673ffffffffffffffffffffffffffffffffffffffff1681526020019081526020016000206000828254610c749190611b5d565b92505081905550816007600083815260200190815260200160002060006101000a81548173ffffffffffffffffffffffffffffffffffffffff021916908373ffffffffffffffffffffffffffffffffffffffff1602179055507fa64cdec004d2859ac7547f4ed3252f53d0fa0b8dcbcc93a47894eee072714b6260008383604051610d019392919061190c565b60405180910390a15050565b60008073ffffffffffffffffffffffffffffffffffffffff166007600084815260200190815260200160002060009054906101000a900473ffffffffffffffffffffffffffffffffffffffff1673ffffffffffffffffffffffffffffffffffffffff1614159050919050565b600073ffffffffffffffffffffffffffffffffffffffff168373ffffffffffffffffffffffffffffffffffffffff161415610de9576040517f08c379a0000000000000000000000000000000000000000000000000000000008152600401610de090611ac0565b60405180910390fd5b600073ffffffffffffffffffffffffffffffffffffffff168273ffffffffffffffffffffffffffffffffffffffff161415610e59576040517f08c379a0000000000000000000000000000000000000000000000000000000008152600401610e5090611980565b60405180910390fd5b60008060008573ffffffffffffffffffffffffffffffffffffffff1673ffffffffffffffffffffffffffffffffffffffff16815260200190815260200160002054905081811015610edf576040517f08c379a0000000000000000000000000000000000000000000000000000000008152600401610ed690611a00565b60405180910390fd5b8181036000808673ffffffffffffffffffffffffffffffffffffffff1673ffffffffffffffffffffffffffffffffffffffff16815260200190815260200160002081905550816000808573ffffffffffffffffffffffffffffffffffffffff1673ffffffffffffffffffffffffffffffffffffffff1681526020019081526020016000206000828254610f729190611b5d565b925050819055507fddf252ad1be2c89b69c2b068fc378daa952ba7f163c4a11628f55a4df523b3ef848484604051610fac9392919061190c565b60405180910390a150505050565b8273ffffffffffffffffffffffffffffffffffffffff16610fda82610417565b73ffffffffffffffffffffffffffffffffffffffff1614611030576040517f08c379a0000000000000000000000000000000000000000000000000000000008152600401611027906119c0565b60405180910390fd5b600073ffffffffffffffffffffffffffffffffffffffff168273ffffffffffffffffffffffffffffffffffffffff1614156110a0576040517f08c379a000000000000000000000000000000000000000000000000000000000815260040161109790611a20565b60405180910390fd5b6001600860008573ffffffffffffffffffffffffffffffffffffffff1673ffffffffffffffffffffffffffffffffffffffff16815260200190815260200160002060008282546110f09190611bb3565b925050819055506001600860008473ffffffffffffffffffffffffffffffffffffffff1673ffffffffffffffffffffffffffffffffffffffff16815260200190815260200160002060008282546111479190611b5d565b92505081905550816007600083815260200190815260200160002060006101000a81548173ffffffffffffffffffffffffffffffffffffffff021916908373ffffffffffffffffffffffffffffffffffffffff1602179055507fa64cdec004d2859ac7547f4ed3252f53d0fa0b8dcbcc93a47894eee072714b628383836040516111d39392919061190c565b60405180910390a1505050565b600073ffffffffffffffffffffffffffffffffffffffff168273ffffffffffffffffffffffffffffffffffffffff161415611250576040517f08c379a000000000000000000000000000000000000000000000000000000000815260040161124790611ae0565b60405180910390fd5b80600160008282546112629190611b5d565b92505081905550806000808473ffffffffffffffffffffffffffffffffffffffff1673ffffffffffffffffffffffffffffffffffffffff16815260200190815260200160002060008282546112b79190611b5d565b925050819055507fddf252ad1be2c89b69c2b068fc378daa952ba7f163c4a11628f55a4df523b3ef600083836040516112f29392919061190c565b60405180910390a15050565b60008135905061130d81611d1a565b92915050565b60008135905061132281611d31565b92915050565b60006020828403121561133a57600080fd5b6000611348848285016112fe565b91505092915050565b6000806040838503121561136457600080fd5b6000611372858286016112fe565b925050602061138385828601611313565b9150509250929050565b60006020828403121561139f57600080fd5b60006113ad84828501611313565b91505092915050565b6113bf81611be7565b82525050565b6113ce81611bf9565b82525050565b60006113df82611b36565b6113e98185611b41565b93506113f9818560208601611c3c565b61140281611d09565b840191505092915050565b600061141882611b36565b6114228185611b52565b9350611432818560208601611c3c565b80840191505092915050565b600061144b602383611b41565b91507f45524332303a207472616e7366657220746f20746865207a65726f206164647260008301527f65737300000000000000000000000000000000000000000000000000000000006020830152604082019050919050565b60006114b1602383611b41565b91507f45524332304d657461646174613a20496e73756666696369656e742042616c6160008301527f6e636500000000000000000000000000000000000000000000000000000000006020830152604082019050919050565b6000611517602583611b41565b91507f4552433732313a207472616e736665722066726f6d20696e636f72726563742060008301527f6f776e65720000000000000000000000000000000000000000000000000000006020830152604082019050919050565b600061157d601c83611b41565b91507f4552433732313a20746f6b656e20616c7265616479206d696e746564000000006000830152602082019050919050565b60006115bd602683611b41565b91507f45524332303a207472616e7366657220616d6f756e742065786365656473206260008301527f616c616e636500000000000000000000000000000000000000000000000000006020830152604082019050919050565b6000611623602483611b41565b91507f4552433732313a207472616e7366657220746f20746865207a65726f2061646460008301527f72657373000000000000000000000000000000000000000000000000000000006020830152604082019050919050565b6000611689602a83611b41565b91507f4552433732313a2062616c616e636520717565727920666f7220746865207a6560008301527f726f2061646472657373000000000000000000000000000000000000000000006020830152604082019050919050565b60006116ef602983611b41565b91507f4552433732313a206f776e657220717565727920666f72206e6f6e657869737460008301527f656e7420746f6b656e00000000000000000000000000000000000000000000006020830152604082019050919050565b6000611755602083611b41565b91507f4552433732313a206d696e7420746f20746865207a65726f20616464726573736000830152602082019050919050565b6000611795602f83611b41565b91507f4552433732314d657461646174613a2055524920717565727920666f72206e6f60008301527f6e6578697374656e7420746f6b656e00000000000000000000000000000000006020830152604082019050919050565b60006117fb602583611b41565b91507f45524332303a207472616e736665722066726f6d20746865207a65726f20616460008301527f64726573730000000000000000000000000000000000000000000000000000006020830152604082019050919050565b6000611861601f83611b41565b91507f45524332303a206d696e7420746f20746865207a65726f2061646472657373006000830152602082019050919050565b61189d81611c25565b82525050565b6118b46118af82611c25565b611ca1565b82525050565b6118c381611c2f565b82525050565b60006118d5828561140d565b91506118e182846118a3565b6020820191508190509392505050565b600060208201905061190660008301846113b6565b92915050565b600060608201905061192160008301866113b6565b61192e60208301856113b6565b61193b6040830184611894565b949350505050565b600060208201905061195860008301846113c5565b92915050565b6000602082019050818103600083015261197881846113d4565b905092915050565b600060208201905081810360008301526119998161143e565b9050919050565b600060208201905081810360008301526119b9816114a4565b9050919050565b600060208201905081810360008301526119d98161150a565b9050919050565b600060208201905081810360008301526119f981611570565b9050919050565b60006020820190508181036000830152611a19816115b0565b9050919050565b60006020820190508181036000830152611a3981611616565b9050919050565b60006020820190508181036000830152611a598161167c565b9050919050565b60006020820190508181036000830152611a79816116e2565b9050919050565b60006020820190508181036000830152611a9981611748565b9050919050565b60006020820190508181036000830152611ab981611788565b9050919050565b60006020820190508181036000830152611ad9816117ee565b9050919050565b60006020820190508181036000830152611af981611854565b9050919050565b6000602082019050611b156000830184611894565b92915050565b6000602082019050611b3060008301846118ba565b92915050565b600081519050919050565b600082825260208201905092915050565b600081905092915050565b6000611b6882611c25565b9150611b7383611c25565b9250827fffffffffffffffffffffffffffffffffffffffffffffffffffffffffffffffff03821115611ba857611ba7611cab565b5b828201905092915050565b6000611bbe82611c25565b9150611bc983611c25565b925082821015611bdc57611bdb611cab565b5b828203905092915050565b6000611bf282611c05565b9050919050565b60008115159050919050565b600073ffffffffffffffffffffffffffffffffffffffff82169050919050565b6000819050919050565b600060ff82169050919050565b60005b83811015611c5a578082015181840152602081019050611c3f565b83811115611c69576000848401525b50505050565b60006002820490506001821680611c8757607f821691505b60208210811415611c9b57611c9a611cda565b5b50919050565b6000819050919050565b7f4e487b7100000000000000000000000000000000000000000000000000000000600052601160045260246000fd5b7f4e487b7100000000000000000000000000000000000000000000000000000000600052602260045260246000fd5b6000601f19601f8301169050919050565b611d2381611be7565b8114611d2e57600080fd5b50565b611d3a81611c25565b8114611d4557600080fd5b5056fea26469706673582212205a23e35dbbdfff44b07e52d4212aad39fc1ab0de95f279254c6eb272aca6823a64736f6c63430008000033",
  "immutableReferences": {},
  "source": "pragma solidity ^0.8.0;\n\nimport './IDSERC20.sol';\nimport './IDSERC721.sol';\n\ncontract IDSNFTMP is IDSERC20, IDSERC721{\n\n    uint256 private _tokenIds;\n\n    constructor(){\n        admin= msg.sender;\n    }\n\n    function mintTokens(address to, uint256 amount) public returns(bool){\n        mintToken(to, amount);\n        return true;\n    }\n\n    function mintNFTs(address to) public returns(bool){\n        _tokenIds +=1;\n        mintNFT(to, _tokenIds);\n        return true;\n    }\n\n    function buyNFT(address to, uint256 tokenId) public returns(bool){\n        require(_exists(tokenId), \"ERC721Metadata: URI query for nonexistent token\");\n        require(_balances[to]>=1, \"ERC20Metadata: Insufficient Balance\");\n\n        transferToken(to,_owners[tokenId], 1);\n\n        transferNFT(_owners[tokenId], to, tokenId);\n\n        return true;\n    }\n\n    function sellNFT(uint256 tokenId) public returns(bool){\n        require(_exists(tokenId), \"ERC721Metadata: URI query for nonexistent token\");\n\n        _owners[tokenId]= admin;\n        _balances[msg.sender] +=1;\n        return true;\n    }\n\n    function getNFTOwner(uint256 tokenId) public view returns(address){\n        require(_exists(tokenId), \"ERC721Metadata: URI query for nonexistent token\");\n        return _owners[tokenId];\n    }\n}",
  "sourcePath": "/Users/rogueguy/Documents/IDSToken/contracts/IDSNFTMP.sol",
  "compiler": {
    "name": "solc",
    "version": "0.8.0+commit.c7dfd78e.Emscripten.clang"
  },
  "schemaVersion": "3.4.1",
  "updatedAt": "2022-03-20T06:59:29.557Z",
  "networkType": "ethereum",
  "devdoc": {
    "kind": "dev",
    "methods": {
      "balanceOf(address)": {
        "details": "See {IERC20-balanceOf}."
      },
      "balanceOfNFTOwner(address)": {
        "details": "See {IERC721-balanceOf}."
      },
      "name()": {
        "details": "Returns the name of the token."
      },
      "nameOfNFT()": {
        "details": "See {IERC721Metadata-name}."
      },
      "ownerOfNFT(uint256)": {
        "details": "See {IERC721-ownerOf}."
      },
      "symbol()": {
        "details": "Returns the symbol of the token, usually a shorter version of the name."
      },
      "symbolOfNFT()": {
        "details": "See {IERC721Metadata-symbol}."
      },
      "tokenURI(uint256)": {
        "details": "See {IERC721Metadata-tokenURI}."
      },
      "totalSupply()": {
        "details": "See {IERC20-totalSupply}."
      }
    },
    "version": 1
  },
  "userdoc": {
    "kind": "user",
    "methods": {},
    "version": 1
  }
}